{
  "_format": "hh-sol-artifact-1",
  "contractName": "WaternityRouterSimple",
  "sourceName": "contracts/WaternityRouterSimple.sol",
  "abi": [
    {
      "inputs": [
        {
          "internalType": "address",
          "name": "_waterNFT",
          "type": "address"
        },
        {
          "internalType": "address",
          "name": "_wellRegistry",
          "type": "address"
        },
        {
          "internalType": "address",
          "name": "_stakingVault",
          "type": "address"
        }
      ],
      "stateMutability": "nonpayable",
      "type": "constructor"
    },
    {
      "anonymous": false,
      "inputs": [],
      "name": "ContractsInitialized",
      "type": "event"
    },
    {
      "inputs": [],
      "name": "getContractAddresses",
      "outputs": [
        {
          "internalType": "address",
          "name": "_waterNFT",
          "type": "address"
        },
        {
          "internalType": "address",
          "name": "_wellRegistry",
          "type": "address"
        },
        {
          "internalType": "address",
          "name": "_stakingVault",
          "type": "address"
        }
      ],
      "stateMutability": "view",
      "type": "function"
    },
    {
      "inputs": [
        {
          "internalType": "uint256",
          "name": "tokenId",
          "type": "uint256"
        }
      ],
      "name": "getWellDetails",
      "outputs": [
        {
          "components": [
            {
              "internalType": "string",
              "name": "location",
              "type": "string"
            },
            {
              "internalType": "uint256",
              "name": "capacity",
              "type": "uint256"
            },
            {
              "internalType": "uint256",
              "name": "peopleServed",
              "type": "uint256"
            },
            {
              "internalType": "bool",
              "name": "isActive",
              "type": "bool"
            },
            {
              "internalType": "address",
              "name": "fieldPartner",
              "type": "address"
            },
            {
              "internalType": "uint256",
              "name": "createdAt",
              "type": "uint256"
            },
            {
              "internalType": "string",
              "name": "metadataURI",
              "type": "string"
            }
          ],
          "internalType": "struct WaterNFT.WellData",
          "name": "wellData",
          "type": "tuple"
        },
        {
          "components": [
            {
              "internalType": "uint256",
              "name": "tokenId",
              "type": "uint256"
            },
            {
              "internalType": "string",
              "name": "location",
              "type": "string"
            },
            {
              "internalType": "uint256",
              "name": "capacity",
              "type": "uint256"
            },
            {
              "internalType": "uint256",
              "name": "peopleServed",
              "type": "uint256"
            },
            {
              "internalType": "bool",
              "name": "isActive",
              "type": "bool"
            },
            {
              "internalType": "address",
              "name": "fieldPartner",
              "type": "address"
            },
            {
              "internalType": "uint256",
              "name": "totalStaked",
              "type": "uint256"
            },
            {
              "internalType": "uint256",
              "name": "impactScore",
              "type": "uint256"
            }
          ],
          "internalType": "struct WellRegistry.WellInfo",
          "name": "registryInfo",
          "type": "tuple"
        },
        {
          "internalType": "uint256",
          "name": "pendingRewards",
          "type": "uint256"
        }
      ],
      "stateMutability": "view",
      "type": "function"
    },
    {
      "inputs": [
        {
          "internalType": "uint256",
          "name": "tokenId",
          "type": "uint256"
        },
        {
          "internalType": "uint256",
          "name": "amount",
          "type": "uint256"
        }
      ],
      "name": "stakeAndRegister",
      "outputs": [],
      "stateMutability": "nonpayable",
      "type": "function"
    },
    {
      "inputs": [],
      "name": "stakingVault",
      "outputs": [
        {
          "internalType": "contract StakingVault",
          "name": "",
          "type": "address"
        }
      ],
      "stateMutability": "view",
      "type": "function"
    },
    {
      "inputs": [],
      "name": "waterNFT",
      "outputs": [
        {
          "internalType": "contract WaterNFT",
          "name": "",
          "type": "address"
        }
      ],
      "stateMutability": "view",
      "type": "function"
    },
    {
      "inputs": [],
      "name": "wellRegistry",
      "outputs": [
        {
          "internalType": "contract WellRegistry",
          "name": "",
          "type": "address"
        }
      ],
      "stateMutability": "view",
      "type": "function"
    }
  ],
  "bytecode": "0x608060405234801561001057600080fd5b5060405161098338038061098383398101604081905261002f916100b3565b600080546001600160a01b038086166001600160a01b03199283161783556001805486831690841617905560028054918516919092161790556040517f0a6ad9b2f50a4b0252fac42f65a1513f4b7c26386616d3637e9bf7b51c12648f9190a15050506100f6565b80516001600160a01b03811681146100ae57600080fd5b919050565b6000806000606084860312156100c857600080fd5b6100d184610097565b92506100df60208501610097565b91506100ed60408501610097565b90509250925092565b61087e806101056000396000f3fe608060405234801561001057600080fd5b50600436106100625760003560e01c806324e7964a1461006757806384af40d7146100975780638f94eb3a146100ac578063953874d2146100bf578063983c88a8146100f2578063c658306914610114575b600080fd5b60025461007a906001600160a01b031681565b6040516001600160a01b0390911681526020015b60405180910390f35b6100aa6100a53660046103e6565b610127565b005b60005461007a906001600160a01b031681565b600054600154600254604080516001600160a01b039485168152928416602084015292169181019190915260600161008e565b610105610100366004610408565b6101e8565b60405161008e939291906104e4565b60015461007a906001600160a01b031681565b60015460405163303eae4f60e01b8152600481018490526001600160a01b039091169063303eae4f90602401600060405180830381600087803b15801561016d57600080fd5b505af192505050801561017e575060015b506002546040516307b0472f60e41b815260048101849052602481018390526001600160a01b0390911690637b0472f090604401600060405180830381600087803b1580156101cc57600080fd5b505af11580156101e0573d6000803e3d6000fd5b505050505050565b6102336040518060e0016040528060608152602001600081526020016000815260200160001515815260200160006001600160a01b0316815260200160008152602001606081525090565b6102866040518061010001604052806000815260200160608152602001600081526020016000815260200160001515815260200160006001600160a01b0316815260200160008152602001600081525090565b60008054604051633aaf0fd760e11b8152600481018690526001600160a01b039091169063755e1fae90602401600060405180830381865afa1580156102d0573d6000803e3d6000fd5b505050506040513d6000823e601f3d908101601f191682016040526102f89190810190610699565b600154604051633055340160e21b8152600481018790529194506001600160a01b03169063c154d00490602401600060405180830381865afa158015610342573d6000803e3d6000fd5b505050506040513d6000823e601f3d908101601f1916820160405261036a919081019061076a565b600254604051633939f1ad60e21b8152336004820152602481018790529193506001600160a01b03169063e4e7c6b490604401602060405180830381865afa1580156103ba573d6000803e3d6000fd5b505050506040513d601f19601f820116820180604052508101906103de919061082f565b929491935050565b600080604083850312156103f957600080fd5b50508035926020909101359150565b60006020828403121561041a57600080fd5b5035919050565b60005b8381101561043c578181015183820152602001610424565b50506000910152565b6000815180845261045d816020860160208601610421565b601f01601f19169290920160200192915050565b600061010082518452602083015181602086015261049182860182610445565b915050604083015160408501526060830151606085015260808301511515608085015260018060a01b0360a08401511660a085015260c083015160c085015260e083015160e08501528091505092915050565b606081526000845160e06060840152610501610140840182610445565b905060208601516080840152604086015160a08401526060860151151560c084015260018060a01b0360808701511660e084015260a086015161010084015260c0860151605f198483030161012085015261055c8282610445565b91505082810360208401526105718186610471565b915050826040830152949350505050565b634e487b7160e01b600052604160045260246000fd5b60405160e0810167ffffffffffffffff811182821017156105bb576105bb610582565b60405290565b604051610100810167ffffffffffffffff811182821017156105bb576105bb610582565b600082601f8301126105f657600080fd5b815167ffffffffffffffff8082111561061157610611610582565b604051601f8301601f19908116603f0116810190828211818310171561063957610639610582565b8160405283815286602085880101111561065257600080fd5b610663846020830160208901610421565b9695505050505050565b8051801515811461067d57600080fd5b919050565b80516001600160a01b038116811461067d57600080fd5b6000602082840312156106ab57600080fd5b815167ffffffffffffffff808211156106c357600080fd5b9083019060e082860312156106d757600080fd5b6106df610598565b8251828111156106ee57600080fd5b6106fa878286016105e5565b825250602083015160208201526040830151604082015261071d6060840161066d565b606082015261072e60808401610682565b608082015260a083015160a082015260c08301518281111561074f57600080fd5b61075b878286016105e5565b60c08301525095945050505050565b60006020828403121561077c57600080fd5b815167ffffffffffffffff8082111561079457600080fd5b9083019061010082860312156107a957600080fd5b6107b16105c1565b825181526020830151828111156107c757600080fd5b6107d3878286016105e5565b60208301525060408301516040820152606083015160608201526107f96080840161066d565b608082015261080a60a08401610682565b60a082015260c083015160c082015260e083015160e082015280935050505092915050565b60006020828403121561084157600080fd5b505191905056fea26469706673582212209b3fd4d25932d5d5096a2cab57c0beb8bf9f5631b465e9643f905b990639cf9e64736f6c63430008140033",
  "linkReferences": {},
  "deployedLinkReferences": {}
}