{
  "_format": "hh-sol-artifact-1",
  "contractName": "StakingVault",
  "sourceName": "contracts/StakingVault.sol",
  "abi": [
    {
      "inputs": [
        {
          "internalType": "address",
          "name": "_usdcToken",
          "type": "address"
        },
        {
          "internalType": "address",
          "name": "_waterNFT",
          "type": "address"
        }
      ],
      "stateMutability": "nonpayable",
      "type": "constructor"
    },
    {
      "inputs": [
        {
          "internalType": "address",
          "name": "owner",
          "type": "address"
        }
      ],
      "name": "OwnableInvalidOwner",
      "type": "error"
    },
    {
      "inputs": [
        {
          "internalType": "address",
          "name": "account",
          "type": "address"
        }
      ],
      "name": "OwnableUnauthorizedAccount",
      "type": "error"
    },
    {
      "inputs": [],
      "name": "ReentrancyGuardReentrantCall",
      "type": "error"
    },
    {
      "anonymous": false,
      "inputs": [
        {
          "indexed": true,
          "internalType": "address",
          "name": "previousOwner",
          "type": "address"
        },
        {
          "indexed": true,
          "internalType": "address",
          "name": "newOwner",
          "type": "address"
        }
      ],
      "name": "OwnershipTransferred",
      "type": "event"
    },
    {
      "anonymous": false,
      "inputs": [
        {
          "indexed": true,
          "internalType": "address",
          "name": "user",
          "type": "address"
        },
        {
          "indexed": true,
          "internalType": "uint256",
          "name": "tokenId",
          "type": "uint256"
        },
        {
          "indexed": false,
          "internalType": "uint256",
          "name": "amount",
          "type": "uint256"
        }
      ],
      "name": "RewardsClaimed",
      "type": "event"
    },
    {
      "anonymous": false,
      "inputs": [
        {
          "indexed": true,
          "internalType": "address",
          "name": "user",
          "type": "address"
        },
        {
          "indexed": true,
          "internalType": "uint256",
          "name": "tokenId",
          "type": "uint256"
        },
        {
          "indexed": false,
          "internalType": "uint256",
          "name": "amount",
          "type": "uint256"
        }
      ],
      "name": "Staked",
      "type": "event"
    },
    {
      "anonymous": false,
      "inputs": [
        {
          "indexed": true,
          "internalType": "address",
          "name": "user",
          "type": "address"
        },
        {
          "indexed": true,
          "internalType": "uint256",
          "name": "tokenId",
          "type": "uint256"
        },
        {
          "indexed": false,
          "internalType": "uint256",
          "name": "amount",
          "type": "uint256"
        }
      ],
      "name": "Unstaked",
      "type": "event"
    },
    {
      "anonymous": false,
      "inputs": [
        {
          "indexed": true,
          "internalType": "uint256",
          "name": "tokenId",
          "type": "uint256"
        },
        {
          "indexed": false,
          "internalType": "uint256",
          "name": "newRate",
          "type": "uint256"
        }
      ],
      "name": "YieldRateUpdated",
      "type": "event"
    },
    {
      "inputs": [],
      "name": "BASE_ANNUAL_YIELD_RATE",
      "outputs": [
        {
          "internalType": "uint256",
          "name": "",
          "type": "uint256"
        }
      ],
      "stateMutability": "view",
      "type": "function"
    },
    {
      "inputs": [
        {
          "internalType": "uint256",
          "name": "tokenId",
          "type": "uint256"
        }
      ],
      "name": "claimRewards",
      "outputs": [],
      "stateMutability": "nonpayable",
      "type": "function"
    },
    {
      "inputs": [
        {
          "internalType": "address",
          "name": "user",
          "type": "address"
        },
        {
          "internalType": "uint256",
          "name": "tokenId",
          "type": "uint256"
        }
      ],
      "name": "getPendingRewards",
      "outputs": [
        {
          "internalType": "uint256",
          "name": "",
          "type": "uint256"
        }
      ],
      "stateMutability": "view",
      "type": "function"
    },
    {
      "inputs": [
        {
          "internalType": "address",
          "name": "user",
          "type": "address"
        },
        {
          "internalType": "uint256",
          "name": "tokenId",
          "type": "uint256"
        }
      ],
      "name": "getStakeInfo",
      "outputs": [
        {
          "components": [
            {
              "internalType": "uint256",
              "name": "amount",
              "type": "uint256"
            },
            {
              "internalType": "uint256",
              "name": "timestamp",
              "type": "uint256"
            },
            {
              "internalType": "uint256",
              "name": "lastClaimTime",
              "type": "uint256"
            },
            {
              "internalType": "uint256",
              "name": "pendingRewards",
              "type": "uint256"
            }
          ],
          "internalType": "struct StakingVault.StakeInfo",
          "name": "",
          "type": "tuple"
        }
      ],
      "stateMutability": "view",
      "type": "function"
    },
    {
      "inputs": [
        {
          "internalType": "uint256",
          "name": "tokenId",
          "type": "uint256"
        }
      ],
      "name": "getTotalStakedPerWell",
      "outputs": [
        {
          "internalType": "uint256",
          "name": "",
          "type": "uint256"
        }
      ],
      "stateMutability": "view",
      "type": "function"
    },
    {
      "inputs": [
        {
          "internalType": "uint256",
          "name": "tokenId",
          "type": "uint256"
        }
      ],
      "name": "getYieldRatePerWell",
      "outputs": [
        {
          "internalType": "uint256",
          "name": "",
          "type": "uint256"
        }
      ],
      "stateMutability": "view",
      "type": "function"
    },
    {
      "inputs": [],
      "name": "owner",
      "outputs": [
        {
          "internalType": "address",
          "name": "",
          "type": "address"
        }
      ],
      "stateMutability": "view",
      "type": "function"
    },
    {
      "inputs": [],
      "name": "renounceOwnership",
      "outputs": [],
      "stateMutability": "nonpayable",
      "type": "function"
    },
    {
      "inputs": [
        {
          "internalType": "uint256",
          "name": "tokenId",
          "type": "uint256"
        },
        {
          "internalType": "uint256",
          "name": "amount",
          "type": "uint256"
        }
      ],
      "name": "stake",
      "outputs": [],
      "stateMutability": "nonpayable",
      "type": "function"
    },
    {
      "inputs": [
        {
          "internalType": "address",
          "name": "",
          "type": "address"
        },
        {
          "internalType": "uint256",
          "name": "",
          "type": "uint256"
        }
      ],
      "name": "stakes",
      "outputs": [
        {
          "internalType": "uint256",
          "name": "amount",
          "type": "uint256"
        },
        {
          "internalType": "uint256",
          "name": "timestamp",
          "type": "uint256"
        },
        {
          "internalType": "uint256",
          "name": "lastClaimTime",
          "type": "uint256"
        },
        {
          "internalType": "uint256",
          "name": "pendingRewards",
          "type": "uint256"
        }
      ],
      "stateMutability": "view",
      "type": "function"
    },
    {
      "inputs": [
        {
          "internalType": "uint256",
          "name": "",
          "type": "uint256"
        }
      ],
      "name": "totalStakedPerWell",
      "outputs": [
        {
          "internalType": "uint256",
          "name": "",
          "type": "uint256"
        }
      ],
      "stateMutability": "view",
      "type": "function"
    },
    {
      "inputs": [
        {
          "internalType": "address",
          "name": "newOwner",
          "type": "address"
        }
      ],
      "name": "transferOwnership",
      "outputs": [],
      "stateMutability": "nonpayable",
      "type": "function"
    },
    {
      "inputs": [
        {
          "internalType": "uint256",
          "name": "tokenId",
          "type": "uint256"
        },
        {
          "internalType": "uint256",
          "name": "amount",
          "type": "uint256"
        }
      ],
      "name": "unstake",
      "outputs": [],
      "stateMutability": "nonpayable",
      "type": "function"
    },
    {
      "inputs": [
        {
          "internalType": "uint256",
          "name": "tokenId",
          "type": "uint256"
        },
        {
          "internalType": "uint256",
          "name": "newRate",
          "type": "uint256"
        }
      ],
      "name": "updateYieldRate",
      "outputs": [],
      "stateMutability": "nonpayable",
      "type": "function"
    },
    {
      "inputs": [],
      "name": "usdcToken",
      "outputs": [
        {
          "internalType": "contract IERC20",
          "name": "",
          "type": "address"
        }
      ],
      "stateMutability": "view",
      "type": "function"
    },
    {
      "inputs": [],
      "name": "waterNFT",
      "outputs": [
        {
          "internalType": "contract WaterNFT",
          "name": "",
          "type": "address"
        }
      ],
      "stateMutability": "view",
      "type": "function"
    },
    {
      "inputs": [
        {
          "internalType": "uint256",
          "name": "",
          "type": "uint256"
        }
      ],
      "name": "yieldRatePerWell",
      "outputs": [
        {
          "internalType": "uint256",
          "name": "",
          "type": "uint256"
        }
      ],
      "stateMutability": "view",
      "type": "function"
    }
  ],
  "bytecode": "0x608060405234801561001057600080fd5b50604051610f72380380610f7283398101604081905261002f91610103565b6001600055338061005a57604051631e4fbdf760e01b81526000600482015260240160405180910390fd5b61006381610095565b50600280546001600160a01b039384166001600160a01b03199182161790915560038054929093169116179055610136565b600180546001600160a01b038381166001600160a01b0319831681179093556040519116919082907f8be0079c531659141344cd1fd0a4f28419497f9722a3daafe3b4186f6b6457e090600090a35050565b80516001600160a01b03811681146100fe57600080fd5b919050565b6000806040838503121561011657600080fd5b61011f836100e7565b915061012d602084016100e7565b90509250929050565b610e2d806101456000396000f3fe608060405234801561001057600080fd5b506004361061010b5760003560e01c80637b0472f0116100a25780639e2c8a5b116100715780639e2c8a5b146102c8578063a8cc58ad146102db578063db1717cd146102e4578063e4e7c6b4146102f7578063f2fde38b1461030a57600080fd5b80637b0472f014610271578063887c4d3c146102845780638da5cb5b146102a45780638f94eb3a146102b557600080fd5b80633d226385116100de5780633d226385146101c9578063571777f5146101e9578063584b62a114610209578063715018a61461026957600080fd5b806307991b85146101105780630962ef791461014357806311eac855146101585780633b521efe14610183575b600080fd5b61013061011e366004610c7b565b60066020526000908152604090205481565b6040519081526020015b60405180910390f35b610156610151366004610c7b565b61031d565b005b60025461016b906001600160a01b031681565b6040516001600160a01b03909116815260200161013a565b610196610191366004610cb0565b6104e2565b60405161013a91908151815260208083015190820152604080830151908201526060918201519181019190915260800190565b6101306101d7366004610c7b565b60009081526005602052604090205490565b6101306101f7366004610c7b565b60009081526006602052604090205490565b610249610217366004610cb0565b600460209081526000928352604080842090915290825290208054600182015460028301546003909301549192909184565b60408051948552602085019390935291830152606082015260800161013a565b610156610568565b61015661027f366004610cda565b61057c565b610130610292366004610c7b565b60056020526000908152604090205481565b6001546001600160a01b031661016b565b60035461016b906001600160a01b031681565b6101566102d6366004610cda565b610796565b61013061012c81565b6101566102f2366004610cda565b610939565b610130610305366004610cb0565b6109f7565b610156610318366004610cfc565b610ad3565b610325610b0e565b61032f3382610b38565b336000908152600460209081526040808320848452909152902060030154806103a95760405162461bcd60e51b815260206004820152602160248201527f5374616b696e675661756c743a204e6f207265776172647320746f20636c61696044820152606d60f81b60648201526084015b60405180910390fd5b3360008181526004602081815260408084208785529091528083206003810193909355426002938401559154915163a9059cbb60e01b815290810192909252602482018390526001600160a01b03169063a9059cbb906044016020604051808303816000875af1158015610421573d6000803e3d6000fd5b505050506040513d601f19601f820116820180604052508101906104459190610d1e565b61049d5760405162461bcd60e51b8152602060048201526024808201527f5374616b696e675661756c743a20526577617264207472616e736665722066616044820152631a5b195960e21b60648201526084016103a0565b604051818152829033907fdacbdde355ba930696a362ea6738feb9f8bd52dfb3d81947558fd3217e23e3259060200160405180910390a3506104df6001600055565b50565b61050d6040518060800160405280600081526020016000815260200160008152602001600081525090565b506001600160a01b038216600090815260046020908152604080832084845282529182902082516080810184528154815260018201549281019290925260028101549282019290925260039091015460608201525b92915050565b610570610bfc565b61057a6000610c29565b565b610584610b0e565b600081116105e85760405162461bcd60e51b815260206004820152602b60248201527f5374616b696e675661756c743a20416d6f756e74206d7573742062652067726560448201526a061746572207468616e20360ac1b60648201526084016103a0565b6002546040516323b872dd60e01b8152336004820152306024820152604481018390526001600160a01b03909116906323b872dd906064016020604051808303816000875af115801561063f573d6000803e3d6000fd5b505050506040513d601f19601f820116820180604052508101906106639190610d1e565b61067f5760405162461bcd60e51b81526004016103a090610d40565b6106893383610b38565b336000908152600460209081526040808320858452909152812080548392906106b3908490610d98565b90915550503360009081526004602090815260408083208584529091528120426001820155600201549003610704573360009081526004602090815260408083208584529091529020426002909101555b60008281526005602052604081208054839290610722908490610d98565b9091555050600082815260066020526040812054900361075057600082815260066020526040902061012c90555b604051818152829033907f1449c6dd7851abc30abf37f57715f492010519147cc2652fbc38202c18a6ee90906020015b60405180910390a36107926001600055565b5050565b61079e610b0e565b3360009081526004602090815260408083208584529091529020548111156108195760405162461bcd60e51b815260206004820152602860248201527f5374616b696e675661756c743a20496e73756666696369656e74207374616b656044820152671908185b5bdd5b9d60c21b60648201526084016103a0565b6108228261031d565b3360009081526004602090815260408083208584529091528120805483929061084c908490610dab565b90915550506000828152600560205260408120805483929061086f908490610dab565b909155505060025460405163a9059cbb60e01b8152336004820152602481018390526001600160a01b039091169063a9059cbb906044016020604051808303816000875af11580156108c5573d6000803e3d6000fd5b505050506040513d601f19601f820116820180604052508101906108e99190610d1e565b6109055760405162461bcd60e51b81526004016103a090610d40565b604051818152829033907f7fc4727e062e336010f2c282598ef5f14facb3de68cf8195c2f23e1454b2b74e90602001610780565b610941610bfc565b6103e88111156109a65760405162461bcd60e51b815260206004820152602a60248201527f5374616b696e675661756c743a205969656c6420726174652063616e6e6f74206044820152696578636565642031302560b01b60648201526084016103a0565b600082815260066020526040908190208290555182907f4959ad9023bf5b492922b51fbc7c0b5e5ec66aa39700e0da6d8af9b2d430898e906109eb9084815260200190565b60405180910390a25050565b6001600160a01b0382166000908152600460209081526040808320848452825280832081516080810183528154808252600183015494820194909452600282015492810192909252600301546060820152908203610a5a57606001519050610562565b6000816040015142610a6c9190610dab565b6000858152600660205260408120548451929350909161271091610a8f91610dbe565b610a999190610dd5565b905060006301e13380610aac8484610dbe565b610ab69190610dd5565b9050808460600151610ac89190610d98565b979650505050505050565b610adb610bfc565b6001600160a01b038116610b0557604051631e4fbdf760e01b8152600060048201526024016103a0565b6104df81610c29565b600260005403610b3157604051633ee5aeb560e01b815260040160405180910390fd5b6002600055565b6001600160a01b038216600090815260046020908152604080832084845290915281208054909103610b6957505050565b6000816002015442610b7b9190610dab565b905080600003610b8b5750505050565b600083815260066020526040812054835461271091610ba991610dbe565b610bb39190610dd5565b905060006301e13380610bc68484610dbe565b610bd09190610dd5565b905080846003016000828254610be69190610d98565b9091555050426002909401939093555050505050565b6001546001600160a01b0316331461057a5760405163118cdaa760e01b81523360048201526024016103a0565b600180546001600160a01b038381166001600160a01b0319831681179093556040519116919082907f8be0079c531659141344cd1fd0a4f28419497f9722a3daafe3b4186f6b6457e090600090a35050565b600060208284031215610c8d57600080fd5b5035919050565b80356001600160a01b0381168114610cab57600080fd5b919050565b60008060408385031215610cc357600080fd5b610ccc83610c94565b946020939093013593505050565b60008060408385031215610ced57600080fd5b50508035926020909101359150565b600060208284031215610d0e57600080fd5b610d1782610c94565b9392505050565b600060208284031215610d3057600080fd5b81518015158114610d1757600080fd5b60208082526022908201527f5374616b696e675661756c743a2055534443207472616e73666572206661696c604082015261195960f21b606082015260800190565b634e487b7160e01b600052601160045260246000fd5b8082018082111561056257610562610d82565b8181038181111561056257610562610d82565b808202811582820484141761056257610562610d82565b600082610df257634e487b7160e01b600052601260045260246000fd5b50049056fea26469706673582212201da14a140ef2990d858f8dc109c2d80ecf22ac839e9585e6ce8d509a8307e9fb64736f6c63430008140033",
  "linkReferences": {},
  "deployedLinkReferences": {}
}