{
  "_format": "hh-sol-artifact-1",
  "contractName": "WaterNFT",
  "sourceName": "contracts/WaterNFT.sol",
  "abi": [
    {
      "inputs": [],
      "stateMutability": "nonpayable",
      "type": "constructor"
    },
    {
      "inputs": [
        {
          "internalType": "address",
          "name": "sender",
          "type": "address"
        },
        {
          "internalType": "uint256",
          "name": "tokenId",
          "type": "uint256"
        },
        {
          "internalType": "address",
          "name": "owner",
          "type": "address"
        }
      ],
      "name": "ERC721IncorrectOwner",
      "type": "error"
    },
    {
      "inputs": [
        {
          "internalType": "address",
          "name": "operator",
          "type": "address"
        },
        {
          "internalType": "uint256",
          "name": "tokenId",
          "type": "uint256"
        }
      ],
      "name": "ERC721InsufficientApproval",
      "type": "error"
    },
    {
      "inputs": [
        {
          "internalType": "address",
          "name": "approver",
          "type": "address"
        }
      ],
      "name": "ERC721InvalidApprover",
      "type": "error"
    },
    {
      "inputs": [
        {
          "internalType": "address",
          "name": "operator",
          "type": "address"
        }
      ],
      "name": "ERC721InvalidOperator",
      "type": "error"
    },
    {
      "inputs": [
        {
          "internalType": "address",
          "name": "owner",
          "type": "address"
        }
      ],
      "name": "ERC721InvalidOwner",
      "type": "error"
    },
    {
      "inputs": [
        {
          "internalType": "address",
          "name": "receiver",
          "type": "address"
        }
      ],
      "name": "ERC721InvalidReceiver",
      "type": "error"
    },
    {
      "inputs": [
        {
          "internalType": "address",
          "name": "sender",
          "type": "address"
        }
      ],
      "name": "ERC721InvalidSender",
      "type": "error"
    },
    {
      "inputs": [
        {
          "internalType": "uint256",
          "name": "tokenId",
          "type": "uint256"
        }
      ],
      "name": "ERC721NonexistentToken",
      "type": "error"
    },
    {
      "inputs": [
        {
          "internalType": "address",
          "name": "owner",
          "type": "address"
        }
      ],
      "name": "OwnableInvalidOwner",
      "type": "error"
    },
    {
      "inputs": [
        {
          "internalType": "address",
          "name": "account",
          "type": "address"
        }
      ],
      "name": "OwnableUnauthorizedAccount",
      "type": "error"
    },
    {
      "anonymous": false,
      "inputs": [
        {
          "indexed": true,
          "internalType": "address",
          "name": "owner",
          "type": "address"
        },
        {
          "indexed": true,
          "internalType": "address",
          "name": "approved",
          "type": "address"
        },
        {
          "indexed": true,
          "internalType": "uint256",
          "name": "tokenId",
          "type": "uint256"
        }
      ],
      "name": "Approval",
      "type": "event"
    },
    {
      "anonymous": false,
      "inputs": [
        {
          "indexed": true,
          "internalType": "address",
          "name": "owner",
          "type": "address"
        },
        {
          "indexed": true,
          "internalType": "address",
          "name": "operator",
          "type": "address"
        },
        {
          "indexed": false,
          "internalType": "bool",
          "name": "approved",
          "type": "bool"
        }
      ],
      "name": "ApprovalForAll",
      "type": "event"
    },
    {
      "anonymous": false,
      "inputs": [
        {
          "indexed": false,
          "internalType": "uint256",
          "name": "_fromTokenId",
          "type": "uint256"
        },
        {
          "indexed": false,
          "internalType": "uint256",
          "name": "_toTokenId",
          "type": "uint256"
        }
      ],
      "name": "BatchMetadataUpdate",
      "type": "event"
    },
    {
      "anonymous": false,
      "inputs": [
        {
          "indexed": false,
          "internalType": "uint256",
          "name": "_tokenId",
          "type": "uint256"
        }
      ],
      "name": "MetadataUpdate",
      "type": "event"
    },
    {
      "anonymous": false,
      "inputs": [
        {
          "indexed": true,
          "internalType": "address",
          "name": "previousOwner",
          "type": "address"
        },
        {
          "indexed": true,
          "internalType": "address",
          "name": "newOwner",
          "type": "address"
        }
      ],
      "name": "OwnershipTransferred",
      "type": "event"
    },
    {
      "anonymous": false,
      "inputs": [
        {
          "indexed": true,
          "internalType": "address",
          "name": "partner",
          "type": "address"
        }
      ],
      "name": "PartnerAuthorized",
      "type": "event"
    },
    {
      "anonymous": false,
      "inputs": [
        {
          "indexed": true,
          "internalType": "address",
          "name": "from",
          "type": "address"
        },
        {
          "indexed": true,
          "internalType": "address",
          "name": "to",
          "type": "address"
        },
        {
          "indexed": true,
          "internalType": "uint256",
          "name": "tokenId",
          "type": "uint256"
        }
      ],
      "name": "Transfer",
      "type": "event"
    },
    {
      "anonymous": false,
      "inputs": [
        {
          "indexed": true,
          "internalType": "uint256",
          "name": "tokenId",
          "type": "uint256"
        },
        {
          "indexed": false,
          "internalType": "address",
          "name": "burner",
          "type": "address"
        },
        {
          "indexed": false,
          "internalType": "string",
          "name": "reason",
          "type": "string"
        }
      ],
      "name": "WellBurned",
      "type": "event"
    },
    {
      "anonymous": false,
      "inputs": [
        {
          "indexed": true,
          "internalType": "uint256",
          "name": "tokenId",
          "type": "uint256"
        },
        {
          "indexed": false,
          "internalType": "string",
          "name": "location",
          "type": "string"
        },
        {
          "indexed": false,
          "internalType": "uint256",
          "name": "capacity",
          "type": "uint256"
        },
        {
          "indexed": false,
          "internalType": "address",
          "name": "fieldPartner",
          "type": "address"
        }
      ],
      "name": "WellMinted",
      "type": "event"
    },
    {
      "anonymous": false,
      "inputs": [
        {
          "indexed": true,
          "internalType": "uint256",
          "name": "tokenId",
          "type": "uint256"
        },
        {
          "indexed": false,
          "internalType": "bool",
          "name": "newStatus",
          "type": "bool"
        }
      ],
      "name": "WellStatusUpdated",
      "type": "event"
    },
    {
      "inputs": [
        {
          "internalType": "address",
          "name": "to",
          "type": "address"
        },
        {
          "internalType": "uint256",
          "name": "tokenId",
          "type": "uint256"
        }
      ],
      "name": "approve",
      "outputs": [],
      "stateMutability": "nonpayable",
      "type": "function"
    },
    {
      "inputs": [
        {
          "internalType": "address",
          "name": "partner",
          "type": "address"
        }
      ],
      "name": "authorizePartner",
      "outputs": [],
      "stateMutability": "nonpayable",
      "type": "function"
    },
    {
      "inputs": [
        {
          "internalType": "address",
          "name": "",
          "type": "address"
        }
      ],
      "name": "authorizedPartners",
      "outputs": [
        {
          "internalType": "bool",
          "name": "",
          "type": "bool"
        }
      ],
      "stateMutability": "view",
      "type": "function"
    },
    {
      "inputs": [
        {
          "internalType": "address",
          "name": "owner",
          "type": "address"
        }
      ],
      "name": "balanceOf",
      "outputs": [
        {
          "internalType": "uint256",
          "name": "",
          "type": "uint256"
        }
      ],
      "stateMutability": "view",
      "type": "function"
    },
    {
      "inputs": [
        {
          "internalType": "uint256",
          "name": "tokenId",
          "type": "uint256"
        },
        {
          "internalType": "string",
          "name": "reason",
          "type": "string"
        }
      ],
      "name": "burnWell",
      "outputs": [],
      "stateMutability": "nonpayable",
      "type": "function"
    },
    {
      "inputs": [
        {
          "internalType": "uint256",
          "name": "tokenId",
          "type": "uint256"
        },
        {
          "internalType": "string",
          "name": "reason",
          "type": "string"
        }
      ],
      "name": "emergencyBurn",
      "outputs": [],
      "stateMutability": "nonpayable",
      "type": "function"
    },
    {
      "inputs": [
        {
          "internalType": "uint256",
          "name": "tokenId",
          "type": "uint256"
        }
      ],
      "name": "getApproved",
      "outputs": [
        {
          "internalType": "address",
          "name": "",
          "type": "address"
        }
      ],
      "stateMutability": "view",
      "type": "function"
    },
    {
      "inputs": [],
      "name": "getTotalMinted",
      "outputs": [
        {
          "internalType": "uint256",
          "name": "",
          "type": "uint256"
        }
      ],
      "stateMutability": "view",
      "type": "function"
    },
    {
      "inputs": [
        {
          "internalType": "uint256",
          "name": "tokenId",
          "type": "uint256"
        }
      ],
      "name": "getWellData",
      "outputs": [
        {
          "components": [
            {
              "internalType": "string",
              "name": "location",
              "type": "string"
            },
            {
              "internalType": "uint256",
              "name": "capacity",
              "type": "uint256"
            },
            {
              "internalType": "uint256",
              "name": "peopleServed",
              "type": "uint256"
            },
            {
              "internalType": "bool",
              "name": "isActive",
              "type": "bool"
            },
            {
              "internalType": "address",
              "name": "fieldPartner",
              "type": "address"
            },
            {
              "internalType": "uint256",
              "name": "createdAt",
              "type": "uint256"
            },
            {
              "internalType": "string",
              "name": "metadataURI",
              "type": "string"
            }
          ],
          "internalType": "struct WaterNFT.WellData",
          "name": "",
          "type": "tuple"
        }
      ],
      "stateMutability": "view",
      "type": "function"
    },
    {
      "inputs": [
        {
          "internalType": "address",
          "name": "owner",
          "type": "address"
        },
        {
          "internalType": "address",
          "name": "operator",
          "type": "address"
        }
      ],
      "name": "isApprovedForAll",
      "outputs": [
        {
          "internalType": "bool",
          "name": "",
          "type": "bool"
        }
      ],
      "stateMutability": "view",
      "type": "function"
    },
    {
      "inputs": [
        {
          "internalType": "address",
          "name": "to",
          "type": "address"
        },
        {
          "internalType": "string",
          "name": "location",
          "type": "string"
        },
        {
          "internalType": "uint256",
          "name": "capacity",
          "type": "uint256"
        },
        {
          "internalType": "uint256",
          "name": "peopleServed",
          "type": "uint256"
        },
        {
          "internalType": "string",
          "name": "metadataURI",
          "type": "string"
        }
      ],
      "name": "mintWell",
      "outputs": [
        {
          "internalType": "uint256",
          "name": "",
          "type": "uint256"
        }
      ],
      "stateMutability": "nonpayable",
      "type": "function"
    },
    {
      "inputs": [],
      "name": "name",
      "outputs": [
        {
          "internalType": "string",
          "name": "",
          "type": "string"
        }
      ],
      "stateMutability": "view",
      "type": "function"
    },
    {
      "inputs": [],
      "name": "owner",
      "outputs": [
        {
          "internalType": "address",
          "name": "",
          "type": "address"
        }
      ],
      "stateMutability": "view",
      "type": "function"
    },
    {
      "inputs": [
        {
          "internalType": "uint256",
          "name": "tokenId",
          "type": "uint256"
        }
      ],
      "name": "ownerOf",
      "outputs": [
        {
          "internalType": "address",
          "name": "",
          "type": "address"
        }
      ],
      "stateMutability": "view",
      "type": "function"
    },
    {
      "inputs": [],
      "name": "renounceOwnership",
      "outputs": [],
      "stateMutability": "nonpayable",
      "type": "function"
    },
    {
      "inputs": [
        {
          "internalType": "address",
          "name": "partner",
          "type": "address"
        }
      ],
      "name": "revokePartner",
      "outputs": [],
      "stateMutability": "nonpayable",
      "type": "function"
    },
    {
      "inputs": [
        {
          "internalType": "address",
          "name": "from",
          "type": "address"
        },
        {
          "internalType": "address",
          "name": "to",
          "type": "address"
        },
        {
          "internalType": "uint256",
          "name": "tokenId",
          "type": "uint256"
        }
      ],
      "name": "safeTransferFrom",
      "outputs": [],
      "stateMutability": "nonpayable",
      "type": "function"
    },
    {
      "inputs": [
        {
          "internalType": "address",
          "name": "from",
          "type": "address"
        },
        {
          "internalType": "address",
          "name": "to",
          "type": "address"
        },
        {
          "internalType": "uint256",
          "name": "tokenId",
          "type": "uint256"
        },
        {
          "internalType": "bytes",
          "name": "data",
          "type": "bytes"
        }
      ],
      "name": "safeTransferFrom",
      "outputs": [],
      "stateMutability": "nonpayable",
      "type": "function"
    },
    {
      "inputs": [
        {
          "internalType": "address",
          "name": "operator",
          "type": "address"
        },
        {
          "internalType": "bool",
          "name": "approved",
          "type": "bool"
        }
      ],
      "name": "setApprovalForAll",
      "outputs": [],
      "stateMutability": "nonpayable",
      "type": "function"
    },
    {
      "inputs": [
        {
          "internalType": "bytes4",
          "name": "interfaceId",
          "type": "bytes4"
        }
      ],
      "name": "supportsInterface",
      "outputs": [
        {
          "internalType": "bool",
          "name": "",
          "type": "bool"
        }
      ],
      "stateMutability": "view",
      "type": "function"
    },
    {
      "inputs": [],
      "name": "symbol",
      "outputs": [
        {
          "internalType": "string",
          "name": "",
          "type": "string"
        }
      ],
      "stateMutability": "view",
      "type": "function"
    },
    {
      "inputs": [
        {
          "internalType": "uint256",
          "name": "tokenId",
          "type": "uint256"
        }
      ],
      "name": "tokenURI",
      "outputs": [
        {
          "internalType": "string",
          "name": "",
          "type": "string"
        }
      ],
      "stateMutability": "view",
      "type": "function"
    },
    {
      "inputs": [
        {
          "internalType": "address",
          "name": "from",
          "type": "address"
        },
        {
          "internalType": "address",
          "name": "to",
          "type": "address"
        },
        {
          "internalType": "uint256",
          "name": "tokenId",
          "type": "uint256"
        }
      ],
      "name": "transferFrom",
      "outputs": [],
      "stateMutability": "nonpayable",
      "type": "function"
    },
    {
      "inputs": [
        {
          "internalType": "address",
          "name": "newOwner",
          "type": "address"
        }
      ],
      "name": "transferOwnership",
      "outputs": [],
      "stateMutability": "nonpayable",
      "type": "function"
    },
    {
      "inputs": [
        {
          "internalType": "uint256",
          "name": "tokenId",
          "type": "uint256"
        },
        {
          "internalType": "bool",
          "name": "newStatus",
          "type": "bool"
        }
      ],
      "name": "updateWellStatus",
      "outputs": [],
      "stateMutability": "nonpayable",
      "type": "function"
    },
    {
      "inputs": [
        {
          "internalType": "uint256",
          "name": "tokenId",
          "type": "uint256"
        }
      ],
      "name": "wellExists",
      "outputs": [
        {
          "internalType": "bool",
          "name": "",
          "type": "bool"
        }
      ],
      "stateMutability": "view",
      "type": "function"
    },
    {
      "inputs": [
        {
          "internalType": "uint256",
          "name": "",
          "type": "uint256"
        }
      ],
      "name": "wells",
      "outputs": [
        {
          "internalType": "string",
          "name": "location",
          "type": "string"
        },
        {
          "internalType": "uint256",
          "name": "capacity",
          "type": "uint256"
        },
        {
          "internalType": "uint256",
          "name": "peopleServed",
          "type": "uint256"
        },
        {
          "internalType": "bool",
          "name": "isActive",
          "type": "bool"
        },
        {
          "internalType": "address",
          "name": "fieldPartner",
          "type": "address"
        },
        {
          "internalType": "uint256",
          "name": "createdAt",
          "type": "uint256"
        },
        {
          "internalType": "string",
          "name": "metadataURI",
          "type": "string"
        }
      ],
      "stateMutability": "view",
      "type": "function"
    }
  ],
  "bytecode": "0x60806040523480156200001157600080fd5b50336040518060400160405280600c81526020016b15d85d195c95d95b1b13919560a21b8152506040518060400160405280600581526020016415d5d3919560da1b8152508160009081620000679190620001b1565b506001620000768282620001b1565b5050506001600160a01b038116620000a857604051631e4fbdf760e01b81526000600482015260240160405180910390fd5b620000b381620000ba565b506200027d565b600780546001600160a01b038381166001600160a01b0319831681179093556040519116919082907f8be0079c531659141344cd1fd0a4f28419497f9722a3daafe3b4186f6b6457e090600090a35050565b634e487b7160e01b600052604160045260246000fd5b600181811c908216806200013757607f821691505b6020821081036200015857634e487b7160e01b600052602260045260246000fd5b50919050565b601f821115620001ac57600081815260208120601f850160051c81016020861015620001875750805b601f850160051c820191505b81811015620001a85782815560010162000193565b5050505b505050565b81516001600160401b03811115620001cd57620001cd6200010c565b620001e581620001de845462000122565b846200015e565b602080601f8311600181146200021d5760008415620002045750858301515b600019600386901b1c1916600185901b178555620001a8565b600085815260208120601f198616915b828110156200024e578886015182559484019460019091019084016200022d565b50858210156200026d5787850151600019600388901b60f8161c191681555b5050505050600190811b01905550565b612244806200028d6000396000f3fe608060405234801561001057600080fd5b50600436106101a95760003560e01c80638da5cb5b116100f9578063b88d4fde11610097578063e85d538b11610071578063e85d538b146103ab578063e985e9c5146103be578063ef8b4139146103d1578063f2fde38b146103e457600080fd5b8063b88d4fde14610372578063c87b56dd14610385578063d3f2d0f31461039857600080fd5b806395d89b41116100d357806395d89b4114610331578063a22cb46514610339578063a712654b1461034c578063a9f1a1bd1461035f57600080fd5b80638da5cb5b146102ea5780639288cce3146102fb57806395a370c11461031e57600080fd5b806342842e0e1161016657806370a082311161014057806370a0823114610289578063715018a61461029c57806372f9dfb0146102a4578063755e1fae146102ca57600080fd5b806342842e0e1461025057806352d6cbde146102635780636352211e1461027657600080fd5b806301ffc9a7146101ae57806306fdde03146101d6578063081812fc146101eb578063095ea7b3146102165780630ca1c5c91461022b57806323b872dd1461023d575b600080fd5b6101c16101bc366004611af5565b6103f7565b60405190151581526020015b60405180910390f35b6101de610408565b6040516101cd9190611b62565b6101fe6101f9366004611b75565b61049a565b6040516001600160a01b0390911681526020016101cd565b610229610224366004611baa565b6104c3565b005b6008545b6040519081526020016101cd565b61022961024b366004611bd4565b6104d2565b61022961025e366004611bd4565b610562565b61022f610271366004611cbc565b610582565b6101fe610284366004611b75565b610742565b61022f610297366004611d44565b61074d565b610229610795565b6102b76102b2366004611b75565b6107a9565b6040516101cd9796959493929190611d5f565b6102dd6102d8366004611b75565b610906565b6040516101cd9190611dbe565b6007546001600160a01b03166101fe565b6101c1610309366004611d44565b600a6020526000908152604090205460ff1681565b61022961032c366004611e3d565b610b0a565b6101de610bdc565b610229610347366004611e94565b610beb565b61022961035a366004611ec7565b610bf6565b61022961036d366004611d44565b610d0f565b610229610380366004611eea565b610db9565b6101de610393366004611b75565b610dd1565b6102296103a6366004611e3d565b610ddc565b6102296103b9366004611d44565b610fed565b6101c16103cc366004611f66565b611016565b6101c16103df366004611b75565b611044565b6102296103f2366004611d44565b611061565b60006104028261109f565b92915050565b60606000805461041790611f90565b80601f016020809104026020016040519081016040528092919081815260200182805461044390611f90565b80156104905780601f1061046557610100808354040283529160200191610490565b820191906000526020600020905b81548152906001019060200180831161047357829003601f168201915b5050505050905090565b60006104a5826110c4565b506000828152600460205260409020546001600160a01b0316610402565b6104ce8282336110fc565b5050565b6001600160a01b03821661050157604051633250574960e11b8152600060048201526024015b60405180910390fd5b600061050e838333611109565b9050836001600160a01b0316816001600160a01b03161461055c576040516364283d7b60e01b81526001600160a01b03808616600483015260248201849052821660448201526064016104f8565b50505050565b61057d83838360405180602001604052806000815250610db9565b505050565b336000908152600a602052604081205460ff16806105aa57506007546001600160a01b031633145b6106085760405162461bcd60e51b815260206004820152602960248201527f57617465724e46543a204e6f7420617574686f72697a656420706172746e65726044820152681037b91037bbb732b960b91b60648201526084016104f8565b60088054908190600061061a83611fca565b919050555061062987826111fd565b6106338184611217565b6040805160e0810182528781526020808201889052818301879052600160608301523360808301524260a083015260c082018690526000848152600990915291909120815181906106849082612037565b506020820151600182015560408201516002820155606082015160038201805460808501516001600160a01b031661010002610100600160a81b0319931515939093166001600160a81b03199091161791909117905560a0820151600482015560c082015160058201906106f89082612037565b50905050807fd43a4fb952bd10b8f6eccac345ae91334c55570cb8b2de0e408c2b161b17f558878733604051610730939291906120f7565b60405180910390a29695505050505050565b6000610402826110c4565b60006001600160a01b038216610779576040516322718ad960e21b8152600060048201526024016104f8565b506001600160a01b031660009081526003602052604090205490565b61079d611267565b6107a76000611294565b565b6009602052600090815260409020805481906107c490611f90565b80601f01602080910402602001604051908101604052809291908181526020018280546107f090611f90565b801561083d5780601f106108125761010080835404028352916020019161083d565b820191906000526020600020905b81548152906001019060200180831161082057829003601f168201915b5050505060018301546002840154600385015460048601546005870180549697949693955060ff8316946101009093046001600160a01b03169391929161088390611f90565b80601f01602080910402602001604051908101604052809291908181526020018280546108af90611f90565b80156108fc5780601f106108d1576101008083540402835291602001916108fc565b820191906000526020600020905b8154815290600101906020018083116108df57829003601f168201915b5050505050905087565b6109516040518060e0016040528060608152602001600081526020016000815260200160001515815260200160006001600160a01b0316815260200160008152602001606081525090565b600061095c836112e6565b6001600160a01b0316036109825760405162461bcd60e51b81526004016104f89061212a565b60008281526009602052604090819020815160e081019092528054829082906109aa90611f90565b80601f01602080910402602001604051908101604052809291908181526020018280546109d690611f90565b8015610a235780601f106109f857610100808354040283529160200191610a23565b820191906000526020600020905b815481529060010190602001808311610a0657829003601f168201915b50505091835250506001820154602082015260028201546040820152600382015460ff81161515606083015261010090046001600160a01b03166080820152600482015460a082015260058201805460c090920191610a8190611f90565b80601f0160208091040260200160405190810160405280929190818152602001828054610aad90611f90565b8015610afa5780601f10610acf57610100808354040283529160200191610afa565b820191906000526020600020905b815481529060010190602001808311610add57829003601f168201915b5050505050815250509050919050565b610b12611267565b6000610b1d836112e6565b6001600160a01b031603610b435760405162461bcd60e51b81526004016104f89061212a565b600082815260096020526040812090610b5c8282611a91565b600060018301819055600283018190556003830180546001600160a81b031916905560048301819055610b93906005840190611a91565b5050610b9e82611301565b817f8cdb65b387c2f0eb9ed8d6a97ea4dfd70df02c5c2a5dab07a846e71d3491ae633383604051610bd0929190612161565b60405180910390a25050565b60606001805461041790611f90565b6104ce33838361133c565b6000610c01836112e6565b6001600160a01b031603610c275760405162461bcd60e51b81526004016104f89061212a565b60008281526009602052604090206003015461010090046001600160a01b0316331480610c5e57506007546001600160a01b031633145b610cbc5760405162461bcd60e51b815260206004820152602960248201527f57617465724e46543a204e6f7420617574686f72697a656420746f207570646160448201526874652073746174757360b81b60648201526084016104f8565b600082815260096020908152604091829020600301805460ff1916841515908117909155915191825283917f40af5e3caf4a23ae649d64313c7690d2f07afac7dd6acbd05dbd3ea339dff34a9101610bd0565b610d17611267565b6001600160a01b038116610d6d5760405162461bcd60e51b815260206004820152601960248201527f57617465724e46543a20496e76616c696420616464726573730000000000000060448201526064016104f8565b6001600160a01b0381166000818152600a6020526040808220805460ff19166001179055517fd4523e3e4c0c36684b32495834e7ce0c88de56c424486a0a25731d07c09710e39190a250565b610dc48484846104d2565b61055c33858585856113db565b606061040282611506565b6000610de7836112e6565b6001600160a01b031603610e0d5760405162461bcd60e51b81526004016104f89061212a565b6000610e1883610742565b60008481526009602052604090206003015490915061010090046001600160a01b03908116908216331480610e555750336001600160a01b038216145b80610e6a57506007546001600160a01b031633145b610eb65760405162461bcd60e51b815260206004820181905260248201527f57617465724e46543a204e6f7420617574686f72697a656420746f206275726e60448201526064016104f8565b60008481526009602052604081208054610ecf90611f90565b80601f0160208091040260200160405190810160405280929190818152602001828054610efb90611f90565b8015610f485780601f10610f1d57610100808354040283529160200191610f48565b820191906000526020600020905b815481529060010190602001808311610f2b57829003601f168201915b50505060008881526009602052604081209394509150610f6a90508282611a91565b600060018301819055600283018190556003830180546001600160a81b031916905560048301819055610fa1906005840190611a91565b5050610fac85611301565b847f8cdb65b387c2f0eb9ed8d6a97ea4dfd70df02c5c2a5dab07a846e71d3491ae633386604051610fde929190612161565b60405180910390a25050505050565b610ff5611267565b6001600160a01b03166000908152600a60205260409020805460ff19169055565b6001600160a01b03918216600090815260056020908152604080832093909416825291909152205460ff1690565b600080611050836112e6565b6001600160a01b0316141592915050565b611069611267565b6001600160a01b03811661109357604051631e4fbdf760e01b8152600060048201526024016104f8565b61109c81611294565b50565b60006001600160e01b03198216632483248360e11b1480610402575061040282611617565b6000806110d0836112e6565b90506001600160a01b03811661040257604051637e27328960e01b8152600481018490526024016104f8565b61057d8383836001611667565b600080611115846112e6565b90506001600160a01b038316156111315761113181848661176d565b6001600160a01b0381161561116f5761114e600085600080611667565b6001600160a01b038116600090815260036020526040902080546000190190555b6001600160a01b0385161561119e576001600160a01b0385166000908152600360205260409020805460010190555b60008481526002602052604080822080546001600160a01b0319166001600160a01b0389811691821790925591518793918516917fddf252ad1be2c89b69c2b068fc378daa952ba7f163c4a11628f55a4df523b3ef91a4949350505050565b6104ce8282604051806020016040528060008152506117d1565b600082815260066020526040902061122f8282612037565b506040518281527ff8e1a15aba9398e019f0b49df1a4fde98ee17ae345cb5f6b5e2c27f5033e8ce79060200160405180910390a15050565b6007546001600160a01b031633146107a75760405163118cdaa760e01b81523360048201526024016104f8565b600780546001600160a01b038381166001600160a01b0319831681179093556040519116919082907f8be0079c531659141344cd1fd0a4f28419497f9722a3daafe3b4186f6b6457e090600090a35050565b6000908152600260205260409020546001600160a01b031690565b60006113106000836000611109565b90506001600160a01b0381166104ce57604051637e27328960e01b8152600481018390526024016104f8565b6001600160a01b03821661136e57604051630b61174360e31b81526001600160a01b03831660048201526024016104f8565b6001600160a01b03838116600081815260056020908152604080832094871680845294825291829020805460ff191686151590811790915591519182527f17307eab39ab6107e8899845ad3d59bd9653f200f220920489ca2b5937696c31910160405180910390a3505050565b6001600160a01b0383163b156114ff57604051630a85bd0160e11b81526001600160a01b0384169063150b7a029061141d908890889087908790600401612185565b6020604051808303816000875af1925050508015611458575060408051601f3d908101601f19168201909252611455918101906121c2565b60015b6114c1573d808015611486576040519150601f19603f3d011682016040523d82523d6000602084013e61148b565b606091505b5080516000036114b957604051633250574960e11b81526001600160a01b03851660048201526024016104f8565b805181602001fd5b6001600160e01b03198116630a85bd0160e11b146114fd57604051633250574960e11b81526001600160a01b03851660048201526024016104f8565b505b5050505050565b6060611511826110c4565b506000828152600660205260408120805461152b90611f90565b80601f016020809104026020016040519081016040528092919081815260200182805461155790611f90565b80156115a45780601f10611579576101008083540402835291602001916115a4565b820191906000526020600020905b81548152906001019060200180831161158757829003601f168201915b5050505050905060006115c260408051602081019091526000815290565b905080516000036115d4575092915050565b8151156116065780826040516020016115ee9291906121df565b60405160208183030381529060405292505050919050565b61160f846117e9565b949350505050565b60006001600160e01b031982166380ac58cd60e01b148061164857506001600160e01b03198216635b5e139f60e01b145b8061040257506301ffc9a760e01b6001600160e01b0319831614610402565b808061167b57506001600160a01b03821615155b1561173d57600061168b846110c4565b90506001600160a01b038316158015906116b75750826001600160a01b0316816001600160a01b031614155b80156116ca57506116c88184611016565b155b156116f35760405163a9fbf51f60e01b81526001600160a01b03841660048201526024016104f8565b811561173b5783856001600160a01b0316826001600160a01b03167f8c5be1e5ebec7d5bd14f71427d1e84f3dd0314c0f7b2291e5b200ac8c7c3b92560405160405180910390a45b505b5050600090815260046020526040902080546001600160a01b0319166001600160a01b0392909216919091179055565b61177883838361185e565b61057d576001600160a01b0383166117a657604051637e27328960e01b8152600481018290526024016104f8565b60405163177e802f60e01b81526001600160a01b0383166004820152602481018290526044016104f8565b6117db83836118c1565b61057d3360008585856113db565b60606117f4826110c4565b50600061180c60408051602081019091526000815290565b9050600081511161182c5760405180602001604052806000815250611857565b8061183684611926565b6040516020016118479291906121df565b6040516020818303038152906040525b9392505050565b60006001600160a01b0383161580159061160f5750826001600160a01b0316846001600160a01b0316148061189857506118988484611016565b8061160f5750506000908152600460205260409020546001600160a01b03908116911614919050565b6001600160a01b0382166118eb57604051633250574960e11b8152600060048201526024016104f8565b60006118f983836000611109565b90506001600160a01b0381161561057d576040516339e3563760e11b8152600060048201526024016104f8565b60606000611933836119b9565b600101905060008167ffffffffffffffff81111561195357611953611c10565b6040519080825280601f01601f19166020018201604052801561197d576020820181803683370190505b5090508181016020015b600019016f181899199a1a9b1b9c1cb0b131b232b360811b600a86061a8153600a850494508461198757509392505050565b60008072184f03e93ff9f4daa797ed6e38ed64bf6a1f0160401b83106119f85772184f03e93ff9f4daa797ed6e38ed64bf6a1f0160401b830492506040015b6d04ee2d6d415b85acef81000000008310611a24576d04ee2d6d415b85acef8100000000830492506020015b662386f26fc100008310611a4257662386f26fc10000830492506010015b6305f5e1008310611a5a576305f5e100830492506008015b6127108310611a6e57612710830492506004015b60648310611a80576064830492506002015b600a83106104025760010192915050565b508054611a9d90611f90565b6000825580601f10611aad575050565b601f01602090049060005260206000209081019061109c91905b80821115611adb5760008155600101611ac7565b5090565b6001600160e01b03198116811461109c57600080fd5b600060208284031215611b0757600080fd5b813561185781611adf565b60005b83811015611b2d578181015183820152602001611b15565b50506000910152565b60008151808452611b4e816020860160208601611b12565b601f01601f19169290920160200192915050565b6020815260006118576020830184611b36565b600060208284031215611b8757600080fd5b5035919050565b80356001600160a01b0381168114611ba557600080fd5b919050565b60008060408385031215611bbd57600080fd5b611bc683611b8e565b946020939093013593505050565b600080600060608486031215611be957600080fd5b611bf284611b8e565b9250611c0060208501611b8e565b9150604084013590509250925092565b634e487b7160e01b600052604160045260246000fd5b600067ffffffffffffffff80841115611c4157611c41611c10565b604051601f8501601f19908116603f01168101908282118183101715611c6957611c69611c10565b81604052809350858152868686011115611c8257600080fd5b858560208301376000602087830101525050509392505050565b600082601f830112611cad57600080fd5b61185783833560208501611c26565b600080600080600060a08688031215611cd457600080fd5b611cdd86611b8e565b9450602086013567ffffffffffffffff80821115611cfa57600080fd5b611d0689838a01611c9c565b955060408801359450606088013593506080880135915080821115611d2a57600080fd5b50611d3788828901611c9c565b9150509295509295909350565b600060208284031215611d5657600080fd5b61185782611b8e565b60e081526000611d7260e083018a611b36565b602083018990526040830188905286151560608401526001600160a01b038616608084015260a0830185905282810360c0840152611db08185611b36565b9a9950505050505050505050565b602081526000825160e06020840152611ddb610100840182611b36565b9050602084015160408401526040840151606084015260608401511515608084015260018060a01b0360808501511660a084015260a084015160c084015260c0840151601f198483030160e0850152611e348282611b36565b95945050505050565b60008060408385031215611e5057600080fd5b82359150602083013567ffffffffffffffff811115611e6e57600080fd5b611e7a85828601611c9c565b9150509250929050565b80358015158114611ba557600080fd5b60008060408385031215611ea757600080fd5b611eb083611b8e565b9150611ebe60208401611e84565b90509250929050565b60008060408385031215611eda57600080fd5b82359150611ebe60208401611e84565b60008060008060808587031215611f0057600080fd5b611f0985611b8e565b9350611f1760208601611b8e565b925060408501359150606085013567ffffffffffffffff811115611f3a57600080fd5b8501601f81018713611f4b57600080fd5b611f5a87823560208401611c26565b91505092959194509250565b60008060408385031215611f7957600080fd5b611f8283611b8e565b9150611ebe60208401611b8e565b600181811c90821680611fa457607f821691505b602082108103611fc457634e487b7160e01b600052602260045260246000fd5b50919050565b600060018201611fea57634e487b7160e01b600052601160045260246000fd5b5060010190565b601f82111561057d57600081815260208120601f850160051c810160208610156120185750805b601f850160051c820191505b818110156114fd57828155600101612024565b815167ffffffffffffffff81111561205157612051611c10565b6120658161205f8454611f90565b84611ff1565b602080601f83116001811461209a57600084156120825750858301515b600019600386901b1c1916600185901b1785556114fd565b600085815260208120601f198616915b828110156120c9578886015182559484019460019091019084016120aa565b50858210156120e75787850151600019600388901b60f8161c191681555b5050505050600190811b01905550565b60608152600061210a6060830186611b36565b6020830194909452506001600160a01b0391909116604090910152919050565b6020808252601d908201527f57617465724e46543a2057656c6c20646f6573206e6f74206578697374000000604082015260600190565b6001600160a01b038316815260406020820181905260009061160f90830184611b36565b6001600160a01b03858116825284166020820152604081018390526080606082018190526000906121b890830184611b36565b9695505050505050565b6000602082840312156121d457600080fd5b815161185781611adf565b600083516121f1818460208801611b12565b835190830190612205818360208801611b12565b0194935050505056fea264697066735822122009bfc8682769824e4835c3dcf160475891a26b811a5f6bef92beee6241fc9ffc64736f6c63430008140033",
  "linkReferences": {},
  "deployedLinkReferences": {}
}