{
  "_format": "hh-sol-artifact-1",
  "contractName": "WaterNFT",
  "sourceName": "contracts/WaterNFT.sol",
  "abi": [
    {
      "inputs": [],
      "stateMutability": "nonpayable",
      "type": "constructor"
    },
    {
      "inputs": [
        {
          "internalType": "address",
          "name": "sender",
          "type": "address"
        },
        {
          "internalType": "uint256",
          "name": "tokenId",
          "type": "uint256"
        },
        {
          "internalType": "address",
          "name": "owner",
          "type": "address"
        }
      ],
      "name": "ERC721IncorrectOwner",
      "type": "error"
    },
    {
      "inputs": [
        {
          "internalType": "address",
          "name": "operator",
          "type": "address"
        },
        {
          "internalType": "uint256",
          "name": "tokenId",
          "type": "uint256"
        }
      ],
      "name": "ERC721InsufficientApproval",
      "type": "error"
    },
    {
      "inputs": [
        {
          "internalType": "address",
          "name": "approver",
          "type": "address"
        }
      ],
      "name": "ERC721InvalidApprover",
      "type": "error"
    },
    {
      "inputs": [
        {
          "internalType": "address",
          "name": "operator",
          "type": "address"
        }
      ],
      "name": "ERC721InvalidOperator",
      "type": "error"
    },
    {
      "inputs": [
        {
          "internalType": "address",
          "name": "owner",
          "type": "address"
        }
      ],
      "name": "ERC721InvalidOwner",
      "type": "error"
    },
    {
      "inputs": [
        {
          "internalType": "address",
          "name": "receiver",
          "type": "address"
        }
      ],
      "name": "ERC721InvalidReceiver",
      "type": "error"
    },
    {
      "inputs": [
        {
          "internalType": "address",
          "name": "sender",
          "type": "address"
        }
      ],
      "name": "ERC721InvalidSender",
      "type": "error"
    },
    {
      "inputs": [
        {
          "internalType": "uint256",
          "name": "tokenId",
          "type": "uint256"
        }
      ],
      "name": "ERC721NonexistentToken",
      "type": "error"
    },
    {
      "inputs": [
        {
          "internalType": "address",
          "name": "owner",
          "type": "address"
        }
      ],
      "name": "OwnableInvalidOwner",
      "type": "error"
    },
    {
      "inputs": [
        {
          "internalType": "address",
          "name": "account",
          "type": "address"
        }
      ],
      "name": "OwnableUnauthorizedAccount",
      "type": "error"
    },
    {
      "anonymous": false,
      "inputs": [
        {
          "indexed": true,
          "internalType": "address",
          "name": "owner",
          "type": "address"
        },
        {
          "indexed": true,
          "internalType": "address",
          "name": "approved",
          "type": "address"
        },
        {
          "indexed": true,
          "internalType": "uint256",
          "name": "tokenId",
          "type": "uint256"
        }
      ],
      "name": "Approval",
      "type": "event"
    },
    {
      "anonymous": false,
      "inputs": [
        {
          "indexed": true,
          "internalType": "address",
          "name": "owner",
          "type": "address"
        },
        {
          "indexed": true,
          "internalType": "address",
          "name": "operator",
          "type": "address"
        },
        {
          "indexed": false,
          "internalType": "bool",
          "name": "approved",
          "type": "bool"
        }
      ],
      "name": "ApprovalForAll",
      "type": "event"
    },
    {
      "anonymous": false,
      "inputs": [
        {
          "indexed": false,
          "internalType": "uint256",
          "name": "_fromTokenId",
          "type": "uint256"
        },
        {
          "indexed": false,
          "internalType": "uint256",
          "name": "_toTokenId",
          "type": "uint256"
        }
      ],
      "name": "BatchMetadataUpdate",
      "type": "event"
    },
    {
      "anonymous": false,
      "inputs": [
        {
          "indexed": false,
          "internalType": "uint256",
          "name": "_tokenId",
          "type": "uint256"
        }
      ],
      "name": "MetadataUpdate",
      "type": "event"
    },
    {
      "anonymous": false,
      "inputs": [
        {
          "indexed": true,
          "internalType": "address",
          "name": "previousOwner",
          "type": "address"
        },
        {
          "indexed": true,
          "internalType": "address",
          "name": "newOwner",
          "type": "address"
        }
      ],
      "name": "OwnershipTransferred",
      "type": "event"
    },
    {
      "anonymous": false,
      "inputs": [
        {
          "indexed": true,
          "internalType": "address",
          "name": "partner",
          "type": "address"
        }
      ],
      "name": "PartnerAuthorized",
      "type": "event"
    },
    {
      "anonymous": false,
      "inputs": [
        {
          "indexed": true,
          "internalType": "address",
          "name": "from",
          "type": "address"
        },
        {
          "indexed": true,
          "internalType": "address",
          "name": "to",
          "type": "address"
        },
        {
          "indexed": true,
          "internalType": "uint256",
          "name": "tokenId",
          "type": "uint256"
        }
      ],
      "name": "Transfer",
      "type": "event"
    },
    {
      "anonymous": false,
      "inputs": [
        {
          "indexed": true,
          "internalType": "uint256",
          "name": "tokenId",
          "type": "uint256"
        },
        {
          "indexed": false,
          "internalType": "string",
          "name": "location",
          "type": "string"
        },
        {
          "indexed": false,
          "internalType": "uint256",
          "name": "capacity",
          "type": "uint256"
        },
        {
          "indexed": false,
          "internalType": "address",
          "name": "fieldPartner",
          "type": "address"
        }
      ],
      "name": "WellMinted",
      "type": "event"
    },
    {
      "anonymous": false,
      "inputs": [
        {
          "indexed": true,
          "internalType": "uint256",
          "name": "tokenId",
          "type": "uint256"
        },
        {
          "indexed": false,
          "internalType": "bool",
          "name": "newStatus",
          "type": "bool"
        }
      ],
      "name": "WellStatusUpdated",
      "type": "event"
    },
    {
      "inputs": [
        {
          "internalType": "address",
          "name": "to",
          "type": "address"
        },
        {
          "internalType": "uint256",
          "name": "tokenId",
          "type": "uint256"
        }
      ],
      "name": "approve",
      "outputs": [],
      "stateMutability": "nonpayable",
      "type": "function"
    },
    {
      "inputs": [
        {
          "internalType": "address",
          "name": "partner",
          "type": "address"
        }
      ],
      "name": "authorizePartner",
      "outputs": [],
      "stateMutability": "nonpayable",
      "type": "function"
    },
    {
      "inputs": [
        {
          "internalType": "address",
          "name": "",
          "type": "address"
        }
      ],
      "name": "authorizedPartners",
      "outputs": [
        {
          "internalType": "bool",
          "name": "",
          "type": "bool"
        }
      ],
      "stateMutability": "view",
      "type": "function"
    },
    {
      "inputs": [
        {
          "internalType": "address",
          "name": "owner",
          "type": "address"
        }
      ],
      "name": "balanceOf",
      "outputs": [
        {
          "internalType": "uint256",
          "name": "",
          "type": "uint256"
        }
      ],
      "stateMutability": "view",
      "type": "function"
    },
    {
      "inputs": [
        {
          "internalType": "uint256",
          "name": "tokenId",
          "type": "uint256"
        }
      ],
      "name": "getApproved",
      "outputs": [
        {
          "internalType": "address",
          "name": "",
          "type": "address"
        }
      ],
      "stateMutability": "view",
      "type": "function"
    },
    {
      "inputs": [
        {
          "internalType": "uint256",
          "name": "tokenId",
          "type": "uint256"
        }
      ],
      "name": "getWellData",
      "outputs": [
        {
          "components": [
            {
              "internalType": "string",
              "name": "location",
              "type": "string"
            },
            {
              "internalType": "uint256",
              "name": "capacity",
              "type": "uint256"
            },
            {
              "internalType": "uint256",
              "name": "peopleServed",
              "type": "uint256"
            },
            {
              "internalType": "bool",
              "name": "isActive",
              "type": "bool"
            },
            {
              "internalType": "address",
              "name": "fieldPartner",
              "type": "address"
            },
            {
              "internalType": "uint256",
              "name": "createdAt",
              "type": "uint256"
            },
            {
              "internalType": "string",
              "name": "metadataURI",
              "type": "string"
            }
          ],
          "internalType": "struct WaterNFT.WellData",
          "name": "",
          "type": "tuple"
        }
      ],
      "stateMutability": "view",
      "type": "function"
    },
    {
      "inputs": [
        {
          "internalType": "address",
          "name": "owner",
          "type": "address"
        },
        {
          "internalType": "address",
          "name": "operator",
          "type": "address"
        }
      ],
      "name": "isApprovedForAll",
      "outputs": [
        {
          "internalType": "bool",
          "name": "",
          "type": "bool"
        }
      ],
      "stateMutability": "view",
      "type": "function"
    },
    {
      "inputs": [
        {
          "internalType": "address",
          "name": "to",
          "type": "address"
        },
        {
          "internalType": "string",
          "name": "location",
          "type": "string"
        },
        {
          "internalType": "uint256",
          "name": "capacity",
          "type": "uint256"
        },
        {
          "internalType": "uint256",
          "name": "peopleServed",
          "type": "uint256"
        },
        {
          "internalType": "string",
          "name": "metadataURI",
          "type": "string"
        }
      ],
      "name": "mintWell",
      "outputs": [
        {
          "internalType": "uint256",
          "name": "",
          "type": "uint256"
        }
      ],
      "stateMutability": "nonpayable",
      "type": "function"
    },
    {
      "inputs": [],
      "name": "name",
      "outputs": [
        {
          "internalType": "string",
          "name": "",
          "type": "string"
        }
      ],
      "stateMutability": "view",
      "type": "function"
    },
    {
      "inputs": [],
      "name": "owner",
      "outputs": [
        {
          "internalType": "address",
          "name": "",
          "type": "address"
        }
      ],
      "stateMutability": "view",
      "type": "function"
    },
    {
      "inputs": [
        {
          "internalType": "uint256",
          "name": "tokenId",
          "type": "uint256"
        }
      ],
      "name": "ownerOf",
      "outputs": [
        {
          "internalType": "address",
          "name": "",
          "type": "address"
        }
      ],
      "stateMutability": "view",
      "type": "function"
    },
    {
      "inputs": [],
      "name": "renounceOwnership",
      "outputs": [],
      "stateMutability": "nonpayable",
      "type": "function"
    },
    {
      "inputs": [
        {
          "internalType": "address",
          "name": "from",
          "type": "address"
        },
        {
          "internalType": "address",
          "name": "to",
          "type": "address"
        },
        {
          "internalType": "uint256",
          "name": "tokenId",
          "type": "uint256"
        }
      ],
      "name": "safeTransferFrom",
      "outputs": [],
      "stateMutability": "nonpayable",
      "type": "function"
    },
    {
      "inputs": [
        {
          "internalType": "address",
          "name": "from",
          "type": "address"
        },
        {
          "internalType": "address",
          "name": "to",
          "type": "address"
        },
        {
          "internalType": "uint256",
          "name": "tokenId",
          "type": "uint256"
        },
        {
          "internalType": "bytes",
          "name": "data",
          "type": "bytes"
        }
      ],
      "name": "safeTransferFrom",
      "outputs": [],
      "stateMutability": "nonpayable",
      "type": "function"
    },
    {
      "inputs": [
        {
          "internalType": "address",
          "name": "operator",
          "type": "address"
        },
        {
          "internalType": "bool",
          "name": "approved",
          "type": "bool"
        }
      ],
      "name": "setApprovalForAll",
      "outputs": [],
      "stateMutability": "nonpayable",
      "type": "function"
    },
    {
      "inputs": [
        {
          "internalType": "bytes4",
          "name": "interfaceId",
          "type": "bytes4"
        }
      ],
      "name": "supportsInterface",
      "outputs": [
        {
          "internalType": "bool",
          "name": "",
          "type": "bool"
        }
      ],
      "stateMutability": "view",
      "type": "function"
    },
    {
      "inputs": [],
      "name": "symbol",
      "outputs": [
        {
          "internalType": "string",
          "name": "",
          "type": "string"
        }
      ],
      "stateMutability": "view",
      "type": "function"
    },
    {
      "inputs": [
        {
          "internalType": "uint256",
          "name": "tokenId",
          "type": "uint256"
        }
      ],
      "name": "tokenURI",
      "outputs": [
        {
          "internalType": "string",
          "name": "",
          "type": "string"
        }
      ],
      "stateMutability": "view",
      "type": "function"
    },
    {
      "inputs": [
        {
          "internalType": "address",
          "name": "from",
          "type": "address"
        },
        {
          "internalType": "address",
          "name": "to",
          "type": "address"
        },
        {
          "internalType": "uint256",
          "name": "tokenId",
          "type": "uint256"
        }
      ],
      "name": "transferFrom",
      "outputs": [],
      "stateMutability": "nonpayable",
      "type": "function"
    },
    {
      "inputs": [
        {
          "internalType": "address",
          "name": "newOwner",
          "type": "address"
        }
      ],
      "name": "transferOwnership",
      "outputs": [],
      "stateMutability": "nonpayable",
      "type": "function"
    },
    {
      "inputs": [
        {
          "internalType": "uint256",
          "name": "tokenId",
          "type": "uint256"
        },
        {
          "internalType": "bool",
          "name": "newStatus",
          "type": "bool"
        }
      ],
      "name": "updateWellStatus",
      "outputs": [],
      "stateMutability": "nonpayable",
      "type": "function"
    },
    {
      "inputs": [
        {
          "internalType": "uint256",
          "name": "",
          "type": "uint256"
        }
      ],
      "name": "wells",
      "outputs": [
        {
          "internalType": "string",
          "name": "location",
          "type": "string"
        },
        {
          "internalType": "uint256",
          "name": "capacity",
          "type": "uint256"
        },
        {
          "internalType": "uint256",
          "name": "peopleServed",
          "type": "uint256"
        },
        {
          "internalType": "bool",
          "name": "isActive",
          "type": "bool"
        },
        {
          "internalType": "address",
          "name": "fieldPartner",
          "type": "address"
        },
        {
          "internalType": "uint256",
          "name": "createdAt",
          "type": "uint256"
        },
        {
          "internalType": "string",
          "name": "metadataURI",
          "type": "string"
        }
      ],
      "stateMutability": "view",
      "type": "function"
    }
  ],
  "bytecode": "0x60806040523480156200001157600080fd5b50336040518060400160405280600c81526020016b15d85d195c95d95b1b13919560a21b8152506040518060400160405280600581526020016415d5d3919560da1b8152508160009081620000679190620001b1565b506001620000768282620001b1565b5050506001600160a01b038116620000a857604051631e4fbdf760e01b81526000600482015260240160405180910390fd5b620000b381620000ba565b506200027d565b600780546001600160a01b038381166001600160a01b0319831681179093556040519116919082907f8be0079c531659141344cd1fd0a4f28419497f9722a3daafe3b4186f6b6457e090600090a35050565b634e487b7160e01b600052604160045260246000fd5b600181811c908216806200013757607f821691505b6020821081036200015857634e487b7160e01b600052602260045260246000fd5b50919050565b601f821115620001ac57600081815260208120601f850160051c81016020861015620001875750805b601f850160051c820191505b81811015620001a85782815560010162000193565b5050505b505050565b81516001600160401b03811115620001cd57620001cd6200010c565b620001e581620001de845462000122565b846200015e565b602080601f8311600181146200021d5760008415620002045750858301515b600019600386901b1c1916600185901b178555620001a8565b600085815260208120601f198616915b828110156200024e578886015182559484019460019091019084016200022d565b50858210156200026d5787850151600019600388901b60f8161c191681555b5050505050600190811b01905550565b611d91806200028d6000396000f3fe608060405234801561001057600080fd5b50600436106101425760003560e01c8063755e1fae116100b8578063a712654b1161007c578063a712654b146102ce578063a9f1a1bd146102e1578063b88d4fde146102f4578063c87b56dd14610307578063e985e9c51461031a578063f2fde38b1461032d57600080fd5b8063755e1fae1461025f5780638da5cb5b1461027f5780639288cce31461029057806395d89b41146102b3578063a22cb465146102bb57600080fd5b806342842e0e1161010a57806342842e0e146101d757806352d6cbde146101ea5780636352211e1461020b57806370a082311461021e578063715018a61461023157806372f9dfb01461023957600080fd5b806301ffc9a71461014757806306fdde031461016f578063081812fc14610184578063095ea7b3146101af57806323b872dd146101c4575b600080fd5b61015a6101553660046116e4565b610340565b60405190151581526020015b60405180910390f35b610177610351565b6040516101669190611751565b610197610192366004611764565b6103e3565b6040516001600160a01b039091168152602001610166565b6101c26101bd366004611799565b61040c565b005b6101c26101d23660046117c3565b61041b565b6101c26101e53660046117c3565b6104ab565b6101fd6101f83660046118ab565b6104cb565b604051908152602001610166565b610197610219366004611764565b61068b565b6101fd61022c366004611933565b610696565b6101c26106de565b61024c610247366004611764565b6106f2565b604051610166979695949392919061194e565b61027261026d366004611764565b61084f565b60405161016691906119ad565b6007546001600160a01b0316610197565b61015a61029e366004611933565b600a6020526000908152604090205460ff1681565b610177610a86565b6101c26102c9366004611a3c565b610a95565b6101c26102dc366004611a6f565b610aa0565b6101c26102ef366004611933565b610bf3565b6101c2610302366004611a92565b610c9d565b610177610315366004611764565b610cb5565b61015a610328366004611b0e565b610cc0565b6101c261033b366004611933565b610cee565b600061034b82610d2c565b92915050565b60606000805461036090611b38565b80601f016020809104026020016040519081016040528092919081815260200182805461038c90611b38565b80156103d95780601f106103ae576101008083540402835291602001916103d9565b820191906000526020600020905b8154815290600101906020018083116103bc57829003601f168201915b5050505050905090565b60006103ee82610d51565b506000828152600460205260409020546001600160a01b031661034b565b610417828233610d8a565b5050565b6001600160a01b03821661044a57604051633250574960e11b8152600060048201526024015b60405180910390fd5b6000610457838333610d97565b9050836001600160a01b0316816001600160a01b0316146104a5576040516364283d7b60e01b81526001600160a01b0380861660048301526024820184905282166044820152606401610441565b50505050565b6104c683838360405180602001604052806000815250610c9d565b505050565b336000908152600a602052604081205460ff16806104f357506007546001600160a01b031633145b6105515760405162461bcd60e51b815260206004820152602960248201527f57617465724e46543a204e6f7420617574686f72697a656420706172746e65726044820152681037b91037bbb732b960b91b6064820152608401610441565b60088054908190600061056383611b72565b91905055506105728782610e90565b61057c8184610eaa565b6040805160e0810182528781526020808201889052818301879052600160608301523360808301524260a083015260c082018690526000848152600990915291909120815181906105cd9082611bdf565b506020820151600182015560408201516002820155606082015160038201805460808501516001600160a01b031661010002610100600160a81b0319931515939093166001600160a81b03199091161791909117905560a0820151600482015560c082015160058201906106419082611bdf565b50905050807fd43a4fb952bd10b8f6eccac345ae91334c55570cb8b2de0e408c2b161b17f55887873360405161067993929190611c9f565b60405180910390a29695505050505050565b600061034b82610d51565b60006001600160a01b0382166106c2576040516322718ad960e21b815260006004820152602401610441565b506001600160a01b031660009081526003602052604090205490565b6106e6610efa565b6106f06000610f27565b565b60096020526000908152604090208054819061070d90611b38565b80601f016020809104026020016040519081016040528092919081815260200182805461073990611b38565b80156107865780601f1061075b57610100808354040283529160200191610786565b820191906000526020600020905b81548152906001019060200180831161076957829003601f168201915b5050505060018301546002840154600385015460048601546005870180549697949693955060ff8316946101009093046001600160a01b0316939192916107cc90611b38565b80601f01602080910402602001604051908101604052809291908181526020018280546107f890611b38565b80156108455780601f1061081a57610100808354040283529160200191610845565b820191906000526020600020905b81548152906001019060200180831161082857829003601f168201915b5050505050905087565b61089a6040518060e0016040528060608152602001600081526020016000815260200160001515815260200160006001600160a01b0316815260200160008152602001606081525090565b6000828152600260205260409020546001600160a01b03166108fe5760405162461bcd60e51b815260206004820152601d60248201527f57617465724e46543a2057656c6c20646f6573206e6f742065786973740000006044820152606401610441565b60008281526009602052604090819020815160e0810190925280548290829061092690611b38565b80601f016020809104026020016040519081016040528092919081815260200182805461095290611b38565b801561099f5780601f106109745761010080835404028352916020019161099f565b820191906000526020600020905b81548152906001019060200180831161098257829003601f168201915b50505091835250506001820154602082015260028201546040820152600382015460ff81161515606083015261010090046001600160a01b03166080820152600482015460a082015260058201805460c0909201916109fd90611b38565b80601f0160208091040260200160405190810160405280929190818152602001828054610a2990611b38565b8015610a765780601f10610a4b57610100808354040283529160200191610a76565b820191906000526020600020905b815481529060010190602001808311610a5957829003601f168201915b5050505050815250509050919050565b60606001805461036090611b38565b610417338383610f79565b6000828152600260205260409020546001600160a01b0316610b045760405162461bcd60e51b815260206004820152601d60248201527f57617465724e46543a2057656c6c20646f6573206e6f742065786973740000006044820152606401610441565b60008281526009602052604090206003015461010090046001600160a01b0316331480610b3b57506007546001600160a01b031633145b610b995760405162461bcd60e51b815260206004820152602960248201527f57617465724e46543a204e6f7420617574686f72697a656420746f207570646160448201526874652073746174757360b81b6064820152608401610441565b600082815260096020908152604091829020600301805460ff1916841515908117909155915191825283917f40af5e3caf4a23ae649d64313c7690d2f07afac7dd6acbd05dbd3ea339dff34a910160405180910390a25050565b610bfb610efa565b6001600160a01b038116610c515760405162461bcd60e51b815260206004820152601960248201527f57617465724e46543a20496e76616c69642061646472657373000000000000006044820152606401610441565b6001600160a01b0381166000818152600a6020526040808220805460ff19166001179055517fd4523e3e4c0c36684b32495834e7ce0c88de56c424486a0a25731d07c09710e39190a250565b610ca884848461041b565b6104a53385858585611018565b606061034b82611143565b6001600160a01b03918216600090815260056020908152604080832093909416825291909152205460ff1690565b610cf6610efa565b6001600160a01b038116610d2057604051631e4fbdf760e01b815260006004820152602401610441565b610d2981610f27565b50565b60006001600160e01b03198216632483248360e11b148061034b575061034b82611254565b6000818152600260205260408120546001600160a01b03168061034b57604051637e27328960e01b815260048101849052602401610441565b6104c683838360016112a4565b6000828152600260205260408120546001600160a01b0390811690831615610dc457610dc48184866113aa565b6001600160a01b03811615610e0257610de16000856000806112a4565b6001600160a01b038116600090815260036020526040902080546000190190555b6001600160a01b03851615610e31576001600160a01b0385166000908152600360205260409020805460010190555b60008481526002602052604080822080546001600160a01b0319166001600160a01b0389811691821790925591518793918516917fddf252ad1be2c89b69c2b068fc378daa952ba7f163c4a11628f55a4df523b3ef91a4949350505050565b61041782826040518060200160405280600081525061140e565b6000828152600660205260409020610ec28282611bdf565b506040518281527ff8e1a15aba9398e019f0b49df1a4fde98ee17ae345cb5f6b5e2c27f5033e8ce79060200160405180910390a15050565b6007546001600160a01b031633146106f05760405163118cdaa760e01b8152336004820152602401610441565b600780546001600160a01b038381166001600160a01b0319831681179093556040519116919082907f8be0079c531659141344cd1fd0a4f28419497f9722a3daafe3b4186f6b6457e090600090a35050565b6001600160a01b038216610fab57604051630b61174360e31b81526001600160a01b0383166004820152602401610441565b6001600160a01b03838116600081815260056020908152604080832094871680845294825291829020805460ff191686151590811790915591519182527f17307eab39ab6107e8899845ad3d59bd9653f200f220920489ca2b5937696c31910160405180910390a3505050565b6001600160a01b0383163b1561113c57604051630a85bd0160e11b81526001600160a01b0384169063150b7a029061105a908890889087908790600401611cd2565b6020604051808303816000875af1925050508015611095575060408051601f3d908101601f1916820190925261109291810190611d0f565b60015b6110fe573d8080156110c3576040519150601f19603f3d011682016040523d82523d6000602084013e6110c8565b606091505b5080516000036110f657604051633250574960e11b81526001600160a01b0385166004820152602401610441565b805181602001fd5b6001600160e01b03198116630a85bd0160e11b1461113a57604051633250574960e11b81526001600160a01b0385166004820152602401610441565b505b5050505050565b606061114e82610d51565b506000828152600660205260408120805461116890611b38565b80601f016020809104026020016040519081016040528092919081815260200182805461119490611b38565b80156111e15780601f106111b6576101008083540402835291602001916111e1565b820191906000526020600020905b8154815290600101906020018083116111c457829003601f168201915b5050505050905060006111ff60408051602081019091526000815290565b90508051600003611211575092915050565b81511561124357808260405160200161122b929190611d2c565b60405160208183030381529060405292505050919050565b61124c84611426565b949350505050565b60006001600160e01b031982166380ac58cd60e01b148061128557506001600160e01b03198216635b5e139f60e01b145b8061034b57506301ffc9a760e01b6001600160e01b031983161461034b565b80806112b857506001600160a01b03821615155b1561137a5760006112c884610d51565b90506001600160a01b038316158015906112f45750826001600160a01b0316816001600160a01b031614155b801561130757506113058184610cc0565b155b156113305760405163a9fbf51f60e01b81526001600160a01b0384166004820152602401610441565b81156113785783856001600160a01b0316826001600160a01b03167f8c5be1e5ebec7d5bd14f71427d1e84f3dd0314c0f7b2291e5b200ac8c7c3b92560405160405180910390a45b505b5050600090815260046020526040902080546001600160a01b0319166001600160a01b0392909216919091179055565b6113b583838361149b565b6104c6576001600160a01b0383166113e357604051637e27328960e01b815260048101829052602401610441565b60405163177e802f60e01b81526001600160a01b038316600482015260248101829052604401610441565b61141883836114fe565b6104c6336000858585611018565b606061143182610d51565b50600061144960408051602081019091526000815290565b905060008151116114695760405180602001604052806000815250611494565b8061147384611563565b604051602001611484929190611d2c565b6040516020818303038152906040525b9392505050565b60006001600160a01b0383161580159061124c5750826001600160a01b0316846001600160a01b031614806114d557506114d58484610cc0565b8061124c5750506000908152600460205260409020546001600160a01b03908116911614919050565b6001600160a01b03821661152857604051633250574960e11b815260006004820152602401610441565b600061153683836000610d97565b90506001600160a01b038116156104c6576040516339e3563760e11b815260006004820152602401610441565b60606000611570836115f6565b600101905060008167ffffffffffffffff811115611590576115906117ff565b6040519080825280601f01601f1916602001820160405280156115ba576020820181803683370190505b5090508181016020015b600019016f181899199a1a9b1b9c1cb0b131b232b360811b600a86061a8153600a85049450846115c457509392505050565b60008072184f03e93ff9f4daa797ed6e38ed64bf6a1f0160401b83106116355772184f03e93ff9f4daa797ed6e38ed64bf6a1f0160401b830492506040015b6d04ee2d6d415b85acef81000000008310611661576d04ee2d6d415b85acef8100000000830492506020015b662386f26fc10000831061167f57662386f26fc10000830492506010015b6305f5e1008310611697576305f5e100830492506008015b61271083106116ab57612710830492506004015b606483106116bd576064830492506002015b600a831061034b5760010192915050565b6001600160e01b031981168114610d2957600080fd5b6000602082840312156116f657600080fd5b8135611494816116ce565b60005b8381101561171c578181015183820152602001611704565b50506000910152565b6000815180845261173d816020860160208601611701565b601f01601f19169290920160200192915050565b6020815260006114946020830184611725565b60006020828403121561177657600080fd5b5035919050565b80356001600160a01b038116811461179457600080fd5b919050565b600080604083850312156117ac57600080fd5b6117b58361177d565b946020939093013593505050565b6000806000606084860312156117d857600080fd5b6117e18461177d565b92506117ef6020850161177d565b9150604084013590509250925092565b634e487b7160e01b600052604160045260246000fd5b600067ffffffffffffffff80841115611830576118306117ff565b604051601f8501601f19908116603f01168101908282118183101715611858576118586117ff565b8160405280935085815286868601111561187157600080fd5b858560208301376000602087830101525050509392505050565b600082601f83011261189c57600080fd5b61149483833560208501611815565b600080600080600060a086880312156118c357600080fd5b6118cc8661177d565b9450602086013567ffffffffffffffff808211156118e957600080fd5b6118f589838a0161188b565b95506040880135945060608801359350608088013591508082111561191957600080fd5b506119268882890161188b565b9150509295509295909350565b60006020828403121561194557600080fd5b6114948261177d565b60e08152600061196160e083018a611725565b602083018990526040830188905286151560608401526001600160a01b038616608084015260a0830185905282810360c084015261199f8185611725565b9a9950505050505050505050565b602081526000825160e060208401526119ca610100840182611725565b9050602084015160408401526040840151606084015260608401511515608084015260018060a01b0360808501511660a084015260a084015160c084015260c0840151601f198483030160e0850152611a238282611725565b95945050505050565b8035801515811461179457600080fd5b60008060408385031215611a4f57600080fd5b611a588361177d565b9150611a6660208401611a2c565b90509250929050565b60008060408385031215611a8257600080fd5b82359150611a6660208401611a2c565b60008060008060808587031215611aa857600080fd5b611ab18561177d565b9350611abf6020860161177d565b925060408501359150606085013567ffffffffffffffff811115611ae257600080fd5b8501601f81018713611af357600080fd5b611b0287823560208401611815565b91505092959194509250565b60008060408385031215611b2157600080fd5b611b2a8361177d565b9150611a666020840161177d565b600181811c90821680611b4c57607f821691505b602082108103611b6c57634e487b7160e01b600052602260045260246000fd5b50919050565b600060018201611b9257634e487b7160e01b600052601160045260246000fd5b5060010190565b601f8211156104c657600081815260208120601f850160051c81016020861015611bc05750805b601f850160051c820191505b8181101561113a57828155600101611bcc565b815167ffffffffffffffff811115611bf957611bf96117ff565b611c0d81611c078454611b38565b84611b99565b602080601f831160018114611c425760008415611c2a5750858301515b600019600386901b1c1916600185901b17855561113a565b600085815260208120601f198616915b82811015611c7157888601518255948401946001909101908401611c52565b5085821015611c8f5787850151600019600388901b60f8161c191681555b5050505050600190811b01905550565b606081526000611cb26060830186611725565b6020830194909452506001600160a01b0391909116604090910152919050565b6001600160a01b0385811682528416602082015260408101839052608060608201819052600090611d0590830184611725565b9695505050505050565b600060208284031215611d2157600080fd5b8151611494816116ce565b60008351611d3e818460208801611701565b835190830190611d52818360208801611701565b0194935050505056fea26469706673582212200461aa39c71fe6313df8a0300690254440b8fe2f387ad7b66deeae8fe5ac92be64736f6c63430008140033",
  "linkReferences": {},
  "deployedLinkReferences": {}
}