{
  "_format": "hh-sol-artifact-1",
  "contractName": "WellRegistry",
  "sourceName": "contracts/WellRegistry.sol",
  "abi": [
    {
      "inputs": [
        {
          "internalType": "address",
          "name": "_waterNFT",
          "type": "address"
        }
      ],
      "stateMutability": "nonpayable",
      "type": "constructor"
    },
    {
      "anonymous": false,
      "inputs": [
        {
          "indexed": true,
          "internalType": "uint256",
          "name": "tokenId",
          "type": "uint256"
        },
        {
          "indexed": false,
          "internalType": "string",
          "name": "location",
          "type": "string"
        },
        {
          "indexed": false,
          "internalType": "uint256",
          "name": "capacity",
          "type": "uint256"
        }
      ],
      "name": "WellRegistered",
      "type": "event"
    },
    {
      "anonymous": false,
      "inputs": [
        {
          "indexed": true,
          "internalType": "uint256",
          "name": "tokenId",
          "type": "uint256"
        },
        {
          "indexed": false,
          "internalType": "uint256",
          "name": "newCapacity",
          "type": "uint256"
        },
        {
          "indexed": false,
          "internalType": "uint256",
          "name": "newPeopleServed",
          "type": "uint256"
        }
      ],
      "name": "WellUpdated",
      "type": "event"
    },
    {
      "inputs": [
        {
          "internalType": "uint256",
          "name": "",
          "type": "uint256"
        }
      ],
      "name": "activeWells",
      "outputs": [
        {
          "internalType": "uint256",
          "name": "",
          "type": "uint256"
        }
      ],
      "stateMutability": "view",
      "type": "function"
    },
    {
      "inputs": [
        {
          "internalType": "uint256",
          "name": "capacity",
          "type": "uint256"
        },
        {
          "internalType": "uint256",
          "name": "peopleServed",
          "type": "uint256"
        }
      ],
      "name": "calculateImpactScore",
      "outputs": [
        {
          "internalType": "uint256",
          "name": "",
          "type": "uint256"
        }
      ],
      "stateMutability": "pure",
      "type": "function"
    },
    {
      "inputs": [],
      "name": "getActiveWells",
      "outputs": [
        {
          "internalType": "uint256[]",
          "name": "",
          "type": "uint256[]"
        }
      ],
      "stateMutability": "view",
      "type": "function"
    },
    {
      "inputs": [
        {
          "internalType": "uint256",
          "name": "tokenId",
          "type": "uint256"
        }
      ],
      "name": "getWellInfo",
      "outputs": [
        {
          "components": [
            {
              "internalType": "uint256",
              "name": "tokenId",
              "type": "uint256"
            },
            {
              "internalType": "string",
              "name": "location",
              "type": "string"
            },
            {
              "internalType": "uint256",
              "name": "capacity",
              "type": "uint256"
            },
            {
              "internalType": "uint256",
              "name": "peopleServed",
              "type": "uint256"
            },
            {
              "internalType": "bool",
              "name": "isActive",
              "type": "bool"
            },
            {
              "internalType": "address",
              "name": "fieldPartner",
              "type": "address"
            },
            {
              "internalType": "uint256",
              "name": "totalStaked",
              "type": "uint256"
            },
            {
              "internalType": "uint256",
              "name": "impactScore",
              "type": "uint256"
            }
          ],
          "internalType": "struct WellRegistry.WellInfo",
          "name": "",
          "type": "tuple"
        }
      ],
      "stateMutability": "view",
      "type": "function"
    },
    {
      "inputs": [
        {
          "internalType": "string",
          "name": "",
          "type": "string"
        }
      ],
      "name": "locationExists",
      "outputs": [
        {
          "internalType": "bool",
          "name": "",
          "type": "bool"
        }
      ],
      "stateMutability": "view",
      "type": "function"
    },
    {
      "inputs": [
        {
          "internalType": "uint256",
          "name": "tokenId",
          "type": "uint256"
        }
      ],
      "name": "registerWell",
      "outputs": [],
      "stateMutability": "nonpayable",
      "type": "function"
    },
    {
      "inputs": [
        {
          "internalType": "uint256",
          "name": "tokenId",
          "type": "uint256"
        },
        {
          "internalType": "uint256",
          "name": "amount",
          "type": "uint256"
        }
      ],
      "name": "updateTotalStaked",
      "outputs": [],
      "stateMutability": "nonpayable",
      "type": "function"
    },
    {
      "inputs": [
        {
          "internalType": "uint256",
          "name": "tokenId",
          "type": "uint256"
        },
        {
          "internalType": "uint256",
          "name": "newCapacity",
          "type": "uint256"
        },
        {
          "internalType": "uint256",
          "name": "newPeopleServed",
          "type": "uint256"
        }
      ],
      "name": "updateWellData",
      "outputs": [],
      "stateMutability": "nonpayable",
      "type": "function"
    },
    {
      "inputs": [],
      "name": "waterNFT",
      "outputs": [
        {
          "internalType": "contract WaterNFT",
          "name": "",
          "type": "address"
        }
      ],
      "stateMutability": "view",
      "type": "function"
    },
    {
      "inputs": [
        {
          "internalType": "uint256",
          "name": "",
          "type": "uint256"
        }
      ],
      "name": "wellRegistry",
      "outputs": [
        {
          "internalType": "uint256",
          "name": "tokenId",
          "type": "uint256"
        },
        {
          "internalType": "string",
          "name": "location",
          "type": "string"
        },
        {
          "internalType": "uint256",
          "name": "capacity",
          "type": "uint256"
        },
        {
          "internalType": "uint256",
          "name": "peopleServed",
          "type": "uint256"
        },
        {
          "internalType": "bool",
          "name": "isActive",
          "type": "bool"
        },
        {
          "internalType": "address",
          "name": "fieldPartner",
          "type": "address"
        },
        {
          "internalType": "uint256",
          "name": "totalStaked",
          "type": "uint256"
        },
        {
          "internalType": "uint256",
          "name": "impactScore",
          "type": "uint256"
        }
      ],
      "stateMutability": "view",
      "type": "function"
    }
  ],
  "bytecode": "0x608060405234801561001057600080fd5b50604051610ff8380380610ff883398101604081905261002f91610054565b600080546001600160a01b0319166001600160a01b0392909216919091179055610084565b60006020828403121561006657600080fd5b81516001600160a01b038116811461007d57600080fd5b9392505050565b610f65806100936000396000f3fe608060405234801561001057600080fd5b506004361061009e5760003560e01c806383b769a61161006657806383b769a6146101195780638f94eb3a1461014057806395e500851461016b578063c154d0041461017e578063c80757c71461019e57600080fd5b806307e7b490146100a3578063125f55fa146100c9578063303eae4f146100de57806359adf593146100f157806360602b9f14610104575b600080fd5b6100b66100b13660046108fd565b6101dc565b6040519081526020015b60405180910390f35b6100dc6100d73660046108fd565b6101fe565b005b6100dc6100ec36600461091f565b610228565b6100b66100ff36600461091f565b61057a565b61010c61059b565b6040516100c09190610938565b61012c61012736600461091f565b6105f3565b6040516100c09897969594939291906109cc565b600054610153906001600160a01b031681565b6040516001600160a01b0390911681526020016100c0565b6100dc610179366004610a22565b6106ca565b61019161018c36600461091f565b6107a4565b6040516100c09190610a4e565b6101cc6101ac366004610b61565b805160208183018101805160028252928201919093012091525460ff1681565b60405190151581526020016100c0565b60006103e86101eb8484610bf7565b6101f59190610c0e565b90505b92915050565b6000828152600160205260408120600501805483929061021f908490610c30565b90915550505050565b600080546040516331a9108f60e11b8152600481018490526001600160a01b0390911690636352211e90602401602060405180830381865afa158015610272573d6000803e3d6000fd5b505050506040513d601f19601f820116820180604052508101906102969190610c5f565b6001600160a01b0316036102e65760405162461bcd60e51b815260206004820152601260248201527113919508191bd95cc81b9bdd08195e1a5cdd60721b60448201526064015b60405180910390fd5b60008054604051633aaf0fd760e11b8152600481018490526001600160a01b039091169063755e1fae90602401600060405180830381865afa158015610330573d6000803e3d6000fd5b505050506040513d6000823e601f3d908101601f191682016040526103589190810190610cd7565b90506002816000015160405161036e9190610da8565b9081526040519081900360200190205460ff16156103ce5760405162461bcd60e51b815260206004820152601b60248201527f4c6f636174696f6e20616c72656164792072656769737465726564000000000060448201526064016102dd565b60405180610100016040528083815260200182600001518152602001826020015181526020018260400151815260200182606001511515815260200182608001516001600160a01b0316815260200160008152602001610436836020015184604001516101dc565b9052600083815260016020818152604090922083518155918301519082019061045f9082610e4d565b5060408281015160028084019190915560608401516003840155608084015160048401805460a08701516001600160a01b031661010002610100600160a81b0319931515939093166001600160a81b03199091161791909117905560c0840151600584015560e09093015160069092019190915582519051600192916104e491610da8565b90815260405160209181900382018120805460ff191693151593909317909255600380546001810182556000919091527fc2575a0e9e593c00f959f8c92f12db2869c3395a3b0502d05e2516446f71f85b0184905582519083015184927f14dd3579ba6cb3ecb5141830ed5f4cf6e103b4768ba847394a8579c80bb61ccb9261056e929091610f0d565b60405180910390a25050565b6003818154811061058a57600080fd5b600091825260209091200154905081565b606060038054806020026020016040519081016040528092919081815260200182805480156105e957602002820191906000526020600020905b8154815260200190600101908083116105d5575b5050505050905090565b60016020819052600091825260409091208054918101805461061490610dc4565b80601f016020809104026020016040519081016040528092919081815260200182805461064090610dc4565b801561068d5780601f106106625761010080835404028352916020019161068d565b820191906000526020600020905b81548152906001019060200180831161067057829003601f168201915b5050505060028301546003840154600485015460058601546006909601549495929491935060ff8116926101009091046001600160a01b03169188565b60008381526001602052604090206004015461010090046001600160a01b031633146107295760405162461bcd60e51b815260206004820152600e60248201526d139bdd08185d5d1a1bdc9a5e995960921b60448201526064016102dd565b60008381526001602052604090206002810183905560030181905561074e82826101dc565b60008481526001602090815260409182902060060192909255805184815291820183905284917f72b9be011ab8341d8673f5dafe92fb4ae1c5728c4601ee0183324d2ad8f6c0b7910160405180910390a2505050565b6107f76040518061010001604052806000815260200160608152602001600081526020016000815260200160001515815260200160006001600160a01b0316815260200160008152602001600081525090565b600082815260016020818152604092839020835161010081019094528054845291820180549184019161082990610dc4565b80601f016020809104026020016040519081016040528092919081815260200182805461085590610dc4565b80156108a25780601f10610877576101008083540402835291602001916108a2565b820191906000526020600020905b81548152906001019060200180831161088557829003601f168201915b50505091835250506002820154602082015260038201546040820152600482015460ff81161515606083015261010090046001600160a01b03166080820152600582015460a082015260069091015460c09091015292915050565b6000806040838503121561091057600080fd5b50508035926020909101359150565b60006020828403121561093157600080fd5b5035919050565b6020808252825182820181905260009190848201906040850190845b8181101561097057835183529284019291840191600101610954565b50909695505050505050565b60005b8381101561099757818101518382015260200161097f565b50506000910152565b600081518084526109b881602086016020860161097c565b601f01601f19169290920160200192915050565b60006101008a83528060208401526109e68184018b6109a0565b60408401999099525050606081019590955292151560808501526001600160a01b039190911660a084015260c083015260e09091015292915050565b600080600060608486031215610a3757600080fd5b505081359360208301359350604090920135919050565b602081528151602082015260006020830151610100806040850152610a776101208501836109a0565b915060408501516060850152606085015160808501526080850151151560a085015260018060a01b0360a08601511660c085015260c085015160e085015260e085015181850152508091505092915050565b634e487b7160e01b600052604160045260246000fd5b60405160e0810167ffffffffffffffff81118282101715610b0257610b02610ac9565b60405290565b604051601f8201601f1916810167ffffffffffffffff81118282101715610b3157610b31610ac9565b604052919050565b600067ffffffffffffffff821115610b5357610b53610ac9565b50601f01601f191660200190565b600060208284031215610b7357600080fd5b813567ffffffffffffffff811115610b8a57600080fd5b8201601f81018413610b9b57600080fd5b8035610bae610ba982610b39565b610b08565b818152856020838501011115610bc357600080fd5b81602084016020830137600091810160200191909152949350505050565b634e487b7160e01b600052601160045260246000fd5b80820281158282048414176101f8576101f8610be1565b600082610c2b57634e487b7160e01b600052601260045260246000fd5b500490565b808201808211156101f8576101f8610be1565b80516001600160a01b0381168114610c5a57600080fd5b919050565b600060208284031215610c7157600080fd5b6101f582610c43565b600082601f830112610c8b57600080fd5b8151610c99610ba982610b39565b818152846020838601011115610cae57600080fd5b610cbf82602083016020870161097c565b949350505050565b80518015158114610c5a57600080fd5b600060208284031215610ce957600080fd5b815167ffffffffffffffff80821115610d0157600080fd5b9083019060e08286031215610d1557600080fd5b610d1d610adf565b825182811115610d2c57600080fd5b610d3887828601610c7a565b8252506020830151602082015260408301516040820152610d5b60608401610cc7565b6060820152610d6c60808401610c43565b608082015260a083015160a082015260c083015182811115610d8d57600080fd5b610d9987828601610c7a565b60c08301525095945050505050565b60008251610dba81846020870161097c565b9190910192915050565b600181811c90821680610dd857607f821691505b602082108103610df857634e487b7160e01b600052602260045260246000fd5b50919050565b601f821115610e4857600081815260208120601f850160051c81016020861015610e255750805b601f850160051c820191505b81811015610e4457828155600101610e31565b5050505b505050565b815167ffffffffffffffff811115610e6757610e67610ac9565b610e7b81610e758454610dc4565b84610dfe565b602080601f831160018114610eb05760008415610e985750858301515b600019600386901b1c1916600185901b178555610e44565b600085815260208120601f198616915b82811015610edf57888601518255948401946001909101908401610ec0565b5085821015610efd5787850151600019600388901b60f8161c191681555b5050505050600190811b01905550565b604081526000610f2060408301856109a0565b9050826020830152939250505056fea26469706673582212207e667a01fee56ebfc840963bec004f1b38f25194a25b35e9df715940659d26ef64736f6c63430008140033",
  "linkReferences": {},
  "deployedLinkReferences": {}
}