{
  "_format": "hh-sol-artifact-1",
  "contractName": "WaternityRouter",
  "sourceName": "contracts/WaternityRouter.sol",
  "abi": [
    {
      "inputs": [
        {
          "internalType": "address",
          "name": "_waterNFT",
          "type": "address"
        },
        {
          "internalType": "address",
          "name": "_wellRegistry",
          "type": "address"
        },
        {
          "internalType": "address",
          "name": "_stakingVault",
          "type": "address"
        },
        {
          "internalType": "address",
          "name": "_chainlinkAutomation",
          "type": "address"
        },
        {
          "internalType": "address",
          "name": "_chainlinkDataFeeds",
          "type": "address"
        },
        {
          "internalType": "address",
          "name": "_chainlinkFunctions",
          "type": "address"
        }
      ],
      "stateMutability": "nonpayable",
      "type": "constructor"
    },
    {
      "inputs": [
        {
          "internalType": "address",
          "name": "owner",
          "type": "address"
        }
      ],
      "name": "OwnableInvalidOwner",
      "type": "error"
    },
    {
      "inputs": [
        {
          "internalType": "address",
          "name": "account",
          "type": "address"
        }
      ],
      "name": "OwnableUnauthorizedAccount",
      "type": "error"
    },
    {
      "anonymous": false,
      "inputs": [],
      "name": "ChainlinkServicesIntegrated",
      "type": "event"
    },
    {
      "anonymous": false,
      "inputs": [],
      "name": "ContractsInitialized",
      "type": "event"
    },
    {
      "anonymous": false,
      "inputs": [
        {
          "indexed": true,
          "internalType": "address",
          "name": "previousOwner",
          "type": "address"
        },
        {
          "indexed": true,
          "internalType": "address",
          "name": "newOwner",
          "type": "address"
        }
      ],
      "name": "OwnershipTransferred",
      "type": "event"
    },
    {
      "inputs": [
        {
          "internalType": "uint256[]",
          "name": "tokenIds",
          "type": "uint256[]"
        }
      ],
      "name": "batchEnableAutomation",
      "outputs": [],
      "stateMutability": "nonpayable",
      "type": "function"
    },
    {
      "inputs": [
        {
          "internalType": "uint256[]",
          "name": "tokenIds",
          "type": "uint256[]"
        },
        {
          "internalType": "uint64",
          "name": "subscriptionId",
          "type": "uint64"
        },
        {
          "internalType": "uint32",
          "name": "gasLimit",
          "type": "uint32"
        },
        {
          "internalType": "bytes32",
          "name": "donID",
          "type": "bytes32"
        }
      ],
      "name": "batchVerifyWells",
      "outputs": [],
      "stateMutability": "nonpayable",
      "type": "function"
    },
    {
      "inputs": [
        {
          "internalType": "uint256",
          "name": "tokenId",
          "type": "uint256"
        },
        {
          "internalType": "string",
          "name": "reason",
          "type": "string"
        }
      ],
      "name": "burnWell",
      "outputs": [],
      "stateMutability": "nonpayable",
      "type": "function"
    },
    {
      "inputs": [],
      "name": "chainlinkAutomation",
      "outputs": [
        {
          "internalType": "contract ChainlinkAutomation",
          "name": "",
          "type": "address"
        }
      ],
      "stateMutability": "view",
      "type": "function"
    },
    {
      "inputs": [],
      "name": "chainlinkDataFeeds",
      "outputs": [
        {
          "internalType": "contract ChainlinkDataFeeds",
          "name": "",
          "type": "address"
        }
      ],
      "stateMutability": "view",
      "type": "function"
    },
    {
      "inputs": [],
      "name": "chainlinkFunctions",
      "outputs": [
        {
          "internalType": "contract ChainlinkFunctions",
          "name": "",
          "type": "address"
        }
      ],
      "stateMutability": "view",
      "type": "function"
    },
    {
      "inputs": [
        {
          "internalType": "uint256",
          "name": "tokenId",
          "type": "uint256"
        }
      ],
      "name": "demonstrateChainlinkIntegration",
      "outputs": [],
      "stateMutability": "nonpayable",
      "type": "function"
    },
    {
      "inputs": [
        {
          "internalType": "uint256",
          "name": "tokenId",
          "type": "uint256"
        },
        {
          "internalType": "string",
          "name": "reason",
          "type": "string"
        }
      ],
      "name": "emergencyBurnWell",
      "outputs": [],
      "stateMutability": "nonpayable",
      "type": "function"
    },
    {
      "inputs": [],
      "name": "getAutomationStatus",
      "outputs": [
        {
          "internalType": "uint256[]",
          "name": "activeWells",
          "type": "uint256[]"
        },
        {
          "internalType": "uint256",
          "name": "interval",
          "type": "uint256"
        },
        {
          "internalType": "uint256",
          "name": "lastUpkeep",
          "type": "uint256"
        },
        {
          "internalType": "uint256",
          "name": "upkeepCounter",
          "type": "uint256"
        }
      ],
      "stateMutability": "view",
      "type": "function"
    },
    {
      "inputs": [],
      "name": "getChainlinkContracts",
      "outputs": [
        {
          "internalType": "address",
          "name": "automation",
          "type": "address"
        },
        {
          "internalType": "address",
          "name": "dataFeeds",
          "type": "address"
        },
        {
          "internalType": "address",
          "name": "functions",
          "type": "address"
        },
        {
          "internalType": "address",
          "name": "stakingVault",
          "type": "address"
        },
        {
          "internalType": "address",
          "name": "wellRegistry",
          "type": "address"
        },
        {
          "internalType": "address",
          "name": "waterNFT",
          "type": "address"
        }
      ],
      "stateMutability": "view",
      "type": "function"
    },
    {
      "inputs": [
        {
          "internalType": "uint256",
          "name": "tokenId",
          "type": "uint256"
        }
      ],
      "name": "getFunctionsStatus",
      "outputs": [
        {
          "internalType": "bool",
          "name": "verificationInProgress",
          "type": "bool"
        },
        {
          "internalType": "bytes",
          "name": "lastResponse",
          "type": "bytes"
        },
        {
          "internalType": "bytes",
          "name": "lastError",
          "type": "bytes"
        }
      ],
      "stateMutability": "view",
      "type": "function"
    },
    {
      "inputs": [],
      "name": "getMarketData",
      "outputs": [
        {
          "internalType": "int256",
          "name": "currentPrice",
          "type": "int256"
        },
        {
          "internalType": "uint256",
          "name": "suggestedYieldRate",
          "type": "uint256"
        },
        {
          "internalType": "uint256",
          "name": "lastUpdate",
          "type": "uint256"
        }
      ],
      "stateMutability": "view",
      "type": "function"
    },
    {
      "inputs": [
        {
          "internalType": "uint256",
          "name": "tokenId",
          "type": "uint256"
        }
      ],
      "name": "getWellDetailsWithChainlink",
      "outputs": [
        {
          "components": [
            {
              "internalType": "string",
              "name": "location",
              "type": "string"
            },
            {
              "internalType": "uint256",
              "name": "capacity",
              "type": "uint256"
            },
            {
              "internalType": "uint256",
              "name": "peopleServed",
              "type": "uint256"
            },
            {
              "internalType": "bool",
              "name": "isActive",
              "type": "bool"
            },
            {
              "internalType": "address",
              "name": "fieldPartner",
              "type": "address"
            },
            {
              "internalType": "uint256",
              "name": "createdAt",
              "type": "uint256"
            },
            {
              "internalType": "string",
              "name": "metadataURI",
              "type": "string"
            }
          ],
          "internalType": "struct WaterNFT.WellData",
          "name": "wellData",
          "type": "tuple"
        },
        {
          "components": [
            {
              "internalType": "uint256",
              "name": "tokenId",
              "type": "uint256"
            },
            {
              "internalType": "string",
              "name": "location",
              "type": "string"
            },
            {
              "internalType": "uint256",
              "name": "capacity",
              "type": "uint256"
            },
            {
              "internalType": "uint256",
              "name": "peopleServed",
              "type": "uint256"
            },
            {
              "internalType": "bool",
              "name": "isActive",
              "type": "bool"
            },
            {
              "internalType": "address",
              "name": "fieldPartner",
              "type": "address"
            },
            {
              "internalType": "uint256",
              "name": "totalStaked",
              "type": "uint256"
            },
            {
              "internalType": "uint256",
              "name": "impactScore",
              "type": "uint256"
            }
          ],
          "internalType": "struct WellRegistry.WellInfo",
          "name": "registryInfo",
          "type": "tuple"
        },
        {
          "internalType": "uint256",
          "name": "pendingRewards",
          "type": "uint256"
        },
        {
          "internalType": "uint256",
          "name": "currentYieldRate",
          "type": "uint256"
        },
        {
          "internalType": "int256",
          "name": "marketPrice",
          "type": "int256"
        },
        {
          "internalType": "bool",
          "name": "automationEnabled",
          "type": "bool"
        }
      ],
      "stateMutability": "view",
      "type": "function"
    },
    {
      "inputs": [
        {
          "internalType": "address",
          "name": "to",
          "type": "address"
        },
        {
          "internalType": "string",
          "name": "location",
          "type": "string"
        },
        {
          "internalType": "uint256",
          "name": "capacity",
          "type": "uint256"
        },
        {
          "internalType": "uint256",
          "name": "peopleServed",
          "type": "uint256"
        },
        {
          "internalType": "string",
          "name": "metadataURI",
          "type": "string"
        }
      ],
      "name": "mintWell",
      "outputs": [
        {
          "internalType": "uint256",
          "name": "tokenId",
          "type": "uint256"
        }
      ],
      "stateMutability": "nonpayable",
      "type": "function"
    },
    {
      "inputs": [
        {
          "internalType": "uint256",
          "name": "tokenId",
          "type": "uint256"
        },
        {
          "internalType": "uint256",
          "name": "stakeAmount",
          "type": "uint256"
        },
        {
          "internalType": "uint64",
          "name": "subscriptionId",
          "type": "uint64"
        },
        {
          "internalType": "uint32",
          "name": "gasLimit",
          "type": "uint32"
        },
        {
          "internalType": "bytes32",
          "name": "donID",
          "type": "bytes32"
        }
      ],
      "name": "onboardWellWithChainlink",
      "outputs": [
        {
          "internalType": "bytes32",
          "name": "functionsRequestId",
          "type": "bytes32"
        }
      ],
      "stateMutability": "nonpayable",
      "type": "function"
    },
    {
      "inputs": [],
      "name": "owner",
      "outputs": [
        {
          "internalType": "address",
          "name": "",
          "type": "address"
        }
      ],
      "stateMutability": "view",
      "type": "function"
    },
    {
      "inputs": [],
      "name": "renounceOwnership",
      "outputs": [],
      "stateMutability": "nonpayable",
      "type": "function"
    },
    {
      "inputs": [
        {
          "internalType": "uint256",
          "name": "tokenId",
          "type": "uint256"
        },
        {
          "internalType": "uint256",
          "name": "amount",
          "type": "uint256"
        }
      ],
      "name": "stakeAndEnableAutomation",
      "outputs": [],
      "stateMutability": "nonpayable",
      "type": "function"
    },
    {
      "inputs": [],
      "name": "stakingVault",
      "outputs": [
        {
          "internalType": "contract StakingVault",
          "name": "",
          "type": "address"
        }
      ],
      "stateMutability": "view",
      "type": "function"
    },
    {
      "inputs": [
        {
          "internalType": "address",
          "name": "newOwner",
          "type": "address"
        }
      ],
      "name": "transferOwnership",
      "outputs": [],
      "stateMutability": "nonpayable",
      "type": "function"
    },
    {
      "inputs": [],
      "name": "updateAllWellsWithMarket",
      "outputs": [],
      "stateMutability": "nonpayable",
      "type": "function"
    },
    {
      "inputs": [
        {
          "internalType": "uint256[]",
          "name": "tokenIds",
          "type": "uint256[]"
        }
      ],
      "name": "updateYieldsWithMarketData",
      "outputs": [],
      "stateMutability": "nonpayable",
      "type": "function"
    },
    {
      "inputs": [
        {
          "internalType": "uint256",
          "name": "tokenId",
          "type": "uint256"
        },
        {
          "internalType": "uint64",
          "name": "subscriptionId",
          "type": "uint64"
        },
        {
          "internalType": "uint32",
          "name": "gasLimit",
          "type": "uint32"
        },
        {
          "internalType": "bytes32",
          "name": "donID",
          "type": "bytes32"
        }
      ],
      "name": "verifyWellWithExternalData",
      "outputs": [
        {
          "internalType": "bytes32",
          "name": "requestId",
          "type": "bytes32"
        }
      ],
      "stateMutability": "nonpayable",
      "type": "function"
    },
    {
      "inputs": [],
      "name": "waterNFT",
      "outputs": [
        {
          "internalType": "contract WaterNFT",
          "name": "",
          "type": "address"
        }
      ],
      "stateMutability": "view",
      "type": "function"
    },
    {
      "inputs": [],
      "name": "wellRegistry",
      "outputs": [
        {
          "internalType": "contract WellRegistry",
          "name": "",
          "type": "address"
        }
      ],
      "stateMutability": "view",
      "type": "function"
    }
  ],
  "bytecode": "0x60806040523480156200001157600080fd5b50604051620024a0380380620024a0833981016040819052620000349162000194565b33806200005b57604051631e4fbdf760e01b81526000600482015260240160405180910390fd5b620000668162000127565b50600180546001600160a01b03199081166001600160a01b0389811691909117909255600280548216888416179055600380548216878416179055600480548216868416179055600580548216858416179055600680549091169183169190911790556040517f0a6ad9b2f50a4b0252fac42f65a1513f4b7c26386616d3637e9bf7b51c12648f90600090a16040517fc1ef7c63733b7bf6b07e75def97f9f62707aac1f94363a70fd02cec982363f5d90600090a150505050505062000215565b600080546001600160a01b038381166001600160a01b0319831681178455604051919092169283917f8be0079c531659141344cd1fd0a4f28419497f9722a3daafe3b4186f6b6457e09190a35050565b80516001600160a01b03811681146200018f57600080fd5b919050565b60008060008060008060c08789031215620001ae57600080fd5b620001b98762000177565b9550620001c96020880162000177565b9450620001d96040880162000177565b9350620001e96060880162000177565b9250620001f96080880162000177565b91506200020960a0880162000177565b90509295509295509295565b61227b80620002256000396000f3fe608060405234801561001057600080fd5b50600436106101735760003560e01c8063715018a6116100de578063b3e04af111610097578063d49cae7a11610071578063d49cae7a14610396578063e91acbae1461039e578063f2fde38b146103b1578063feef8f0e146103c457600080fd5b8063b3e04af11461035d578063c658306914610370578063d3f2d0f31461038357600080fd5b8063715018a6146102c3578063851b6877146102cb5780638da5cb5b146102de5780638f94eb3a146102ef578063a4efeadc14610302578063b027e44a1461034a57600080fd5b80634059109f116101305780634059109f1461022057806342f51e39146102335780634d96264c1461025857806352d6cbde1461027b57806354338a321461028e5780636fe4340a146102b057600080fd5b80630cc12a8c146101785780631bc4a23a146101995780631d8b6431146101ba57806324e7964a146101e5578063343f810d146101f8578063379efa301461020d575b600080fd5b6101806103d7565b60405161019094939291906117f6565b60405180910390f35b6101ac6101a7366004611855565b6105cc565b604051908152602001610190565b6006546101cd906001600160a01b031681565b6040516001600160a01b039091168152602001610190565b6003546101cd906001600160a01b031681565b61020b610206366004611899565b610667565b005b6005546101cd906001600160a01b031681565b61020b61022e3660046119da565b610780565b610246610241366004611a16565b6107e5565b60405161019096959493929190611af2565b610260610bac565b60408051938452602084019290925290820152606001610190565b6101ac610289366004611c3f565b610d26565b6102a161029c366004611a16565b610e5a565b60405161019093929190611cc8565b61020b6102be366004611cff565b610fcf565b61020b61103d565b61020b6102d9366004611d46565b611051565b6000546001600160a01b03166101cd565b6001546101cd906001600160a01b031681565b600454600554600654604080516001600160a01b03948516815292841660208401529216918101919091526000606082018190526080820181905260a082015260c001610190565b61020b6103583660046119da565b61112f565b6101ac61036b366004611d8c565b6111c8565b6002546101cd906001600160a01b031681565b61020b610391366004611d46565b611418565b61020b61155c565b61020b6103ac366004611a16565b6115c6565b61020b6103bf366004611dda565b611700565b6004546101cd906001600160a01b031681565b60606000806000600460009054906101000a90046001600160a01b03166001600160a01b03166360602b9f6040518163ffffffff1660e01b8152600401600060405180830381865afa158015610431573d6000803e3d6000fd5b505050506040513d6000823e601f3d908101601f191682016040526104599190810190611dfe565b9350600460009054906101000a90046001600160a01b03166001600160a01b031663947a36fb6040518163ffffffff1660e01b8152600401602060405180830381865afa1580156104ae573d6000803e3d6000fd5b505050506040513d601f19601f820116820180604052508101906104d29190611e83565b9250600460009054906101000a90046001600160a01b03166001600160a01b0316633f3b3b276040518163ffffffff1660e01b8152600401602060405180830381865afa158015610527573d6000803e3d6000fd5b505050506040513d601f19601f8201168201806040525081019061054b9190611e83565b9150600460009054906101000a90046001600160a01b03166001600160a01b031663a3d3c0d26040518163ffffffff1660e01b8152600401602060405180830381865afa1580156105a0573d6000803e3d6000fd5b505050506040513d601f19601f820116820180604052508101906105c49190611e83565b905090919293565b600654604051630b989b7b60e01b8152600481018690526001600160401b038516602482015263ffffffff84166044820152606481018390526000916001600160a01b031690630b989b7b906084016020604051808303816000875af115801561063a573d6000803e3d6000fd5b505050506040513d601f19601f8201168201806040525081019061065e9190611e83565b95945050505050565b60025460405163303eae4f60e01b8152600481018490526001600160a01b039091169063303eae4f90602401600060405180830381600087803b1580156106ad57600080fd5b505af19250505080156106be575060015b506003546040516307b0472f60e41b815260048101849052602481018390526001600160a01b0390911690637b0472f090604401600060405180830381600087803b15801561070c57600080fd5b505af1158015610720573d6000803e3d6000fd5b5050600480546040516311e8f71560e21b81529182018690526001600160a01b031692506347a3dc5491506024015b600060405180830381600087803b15801561076957600080fd5b505af192505050801561077a575060015b505b5050565b6005546040516344a1c3b160e11b81526001600160a01b03909116906389438762906107b0908490600401611e9c565b600060405180830381600087803b1580156107ca57600080fd5b505af11580156107de573d6000803e3d6000fd5b5050505050565b6108306040518060e0016040528060608152602001600081526020016000815260200160001515815260200160006001600160a01b0316815260200160008152602001606081525090565b6108836040518061010001604052806000815260200160608152602001600081526020016000815260200160001515815260200160006001600160a01b0316815260200160008152602001600081525090565b600154604051633aaf0fd760e11b8152600481018590526000918291829182916001600160a01b039091169063755e1fae90602401600060405180830381865afa1580156108d5573d6000803e3d6000fd5b505050506040513d6000823e601f3d908101601f191682016040526108fd9190810190611f1a565b600254604051633055340160e21b8152600481018a90529197506001600160a01b03169063c154d00490602401600060405180830381865afa158015610947573d6000803e3d6000fd5b505050506040513d6000823e601f3d908101601f1916820160405261096f9190810190611fea565b600354604051633939f1ad60e21b8152336004820152602481018a90529196506001600160a01b03169063e4e7c6b490604401602060405180830381865afa1580156109bf573d6000803e3d6000fd5b505050506040513d601f19601f820116820180604052508101906109e39190611e83565b9350600560009054906101000a90046001600160a01b03166001600160a01b03166345c808016040518163ffffffff1660e01b8152600401602060405180830381865afa158015610a38573d6000803e3d6000fd5b505050506040513d601f19601f82011682018060405250810190610a5c9190611e83565b9250600560009054906101000a90046001600160a01b03166001600160a01b0316638e15f4736040518163ffffffff1660e01b8152600401602060405180830381865afa158015610ab1573d6000803e3d6000fd5b505050506040513d601f19601f82011682018060405250810190610ad59190611e83565b91506000600460009054906101000a90046001600160a01b03166001600160a01b03166360602b9f6040518163ffffffff1660e01b8152600401600060405180830381865afa158015610b2c573d6000803e3d6000fd5b505050506040513d6000823e601f3d908101601f19168201604052610b549190810190611dfe565b90506000915060005b8151811015610ba15788828281518110610b7957610b796120ae565b602002602001015103610b8f5760019250610ba1565b80610b99816120c4565b915050610b5d565b505091939550919395565b6000806000600560009054906101000a90046001600160a01b03166001600160a01b0316638e15f4736040518163ffffffff1660e01b8152600401602060405180830381865afa158015610c04573d6000803e3d6000fd5b505050506040513d601f19601f82011682018060405250810190610c289190611e83565b9250600560009054906101000a90046001600160a01b03166001600160a01b03166345c808016040518163ffffffff1660e01b8152600401602060405180830381865afa158015610c7d573d6000803e3d6000fd5b505050506040513d601f19601f82011682018060405250810190610ca19190611e83565b9150600560009054906101000a90046001600160a01b03166001600160a01b031663a76752b86040518163ffffffff1660e01b8152600401608060405180830381865afa158015610cf6573d6000803e3d6000fd5b505050506040513d601f19601f82011682018060405250810190610d1a91906120eb565b50949593949392505050565b60015460405163296b65ef60e11b81526000916001600160a01b0316906352d6cbde90610d5f908990899089908990899060040161213d565b6020604051808303816000875af1158015610d7e573d6000803e3d6000fd5b505050506040513d601f19601f82011682018060405250810190610da29190611e83565b60025460405163303eae4f60e01b8152600481018390529192506001600160a01b03169063303eae4f90602401600060405180830381600087803b158015610de957600080fd5b505af1925050508015610dfa575060015b50600480546040516311e8f71560e21b81529182018390526001600160a01b0316906347a3dc5490602401600060405180830381600087803b158015610e3f57600080fd5b505af1925050508015610e50575060015b5095945050505050565b6006546040516353a6a5cf60e01b81526004810183905260009160609182916001600160a01b0316906353a6a5cf90602401602060405180830381865afa158015610ea9573d6000803e3d6000fd5b505050506040513d601f19601f82011682018060405250810190610ecd919061218b565b9250600660009054906101000a90046001600160a01b03166001600160a01b0316633944ea3a6040518163ffffffff1660e01b8152600401600060405180830381865afa158015610f22573d6000803e3d6000fd5b505050506040513d6000823e601f3d908101601f19168201604052610f4a91908101906121a6565b9150600660009054906101000a90046001600160a01b03166001600160a01b0316634b0795a86040518163ffffffff1660e01b8152600401600060405180830381865afa158015610f9f573d6000803e3d6000fd5b505050506040513d6000823e601f3d908101601f19168201604052610fc791908101906121a6565b929491935050565b60065460405163f9279e6960e01b81526001600160a01b039091169063f9279e69906110059087908790879087906004016121ee565b600060405180830381600087803b15801561101f57600080fd5b505af1158015611033573d6000803e3d6000fd5b5050505050505050565b61104561173e565b61104f600061176b565b565b6000546001600160a01b031633146110c75760405162461bcd60e51b815260206004820152602e60248201527f57617465726e697479526f757465723a204f6e6c79206f776e65722063616e2060448201526d32b6b2b933b2b731bc90313ab93760911b60648201526084015b60405180910390fd5b6001546040516395a370c160e01b81526001600160a01b03909116906395a370c1906110f9908590859060040161222c565b600060405180830381600087803b15801561111357600080fd5b505af1158015611127573d6000803e3d6000fd5b505050505050565b60005b815181101561077c5760045482516001600160a01b03909116906347a3dc5490849084908110611164576111646120ae565b60200260200101516040518263ffffffff1660e01b815260040161118a91815260200190565b600060405180830381600087803b1580156111a457600080fd5b505af19250505080156111b5575060015b50806111c0816120c4565b915050611132565b60025460405163303eae4f60e01b8152600481018790526000916001600160a01b03169063303eae4f90602401600060405180830381600087803b15801561120f57600080fd5b505af1925050508015611220575060015b506003546040516307b0472f60e41b815260048101889052602481018790526001600160a01b0390911690637b0472f090604401600060405180830381600087803b15801561126e57600080fd5b505af1158015611282573d6000803e3d6000fd5b5050600480546040516311e8f71560e21b81529182018a90526001600160a01b031692506347a3dc549150602401600060405180830381600087803b1580156112ca57600080fd5b505af19250505080156112db575060015b50600654604051630b989b7b60e01b8152600481018890526001600160401b038616602482015263ffffffff85166044820152606481018490526001600160a01b0390911690630b989b7b906084016020604051808303816000875af1158015611349573d6000803e3d6000fd5b505050506040513d601f19601f8201168201806040525081019061136d9190611e83565b604080516001808252818301909252919250600091906020808301908036833701905050905086816000815181106113a7576113a76120ae565b60209081029190910101526005546040516344a1c3b160e11b81526001600160a01b03909116906389438762906113e2908490600401611e9c565b600060405180830381600087803b1580156113fc57600080fd5b505af192505050801561140d575060015b505095945050505050565b600354604051633d22638560e01b8152600481018490526000916001600160a01b031690633d22638590602401602060405180830381865afa158015611462573d6000803e3d6000fd5b505050506040513d601f19601f820116820180604052508101906114869190611e83565b905080156114f35760405162461bcd60e51b815260206004820152603460248201527f57617465726e697479526f757465723a2043616e6e6f74206275726e2077656c6044820152736c207769746820616374697665207374616b657360601b60648201526084016110be565b60015460405163d3f2d0f360e01b81526001600160a01b039091169063d3f2d0f390611525908690869060040161222c565b600060405180830381600087803b15801561153f57600080fd5b505af1158015611553573d6000803e3d6000fd5b50505050505050565b600560009054906101000a90046001600160a01b03166001600160a01b03166378effc2b6040518163ffffffff1660e01b8152600401600060405180830381600087803b1580156115ac57600080fd5b505af11580156115c0573d6000803e3d6000fd5b50505050565b600480546040516311e8f71560e21b81529182018390526001600160a01b0316906347a3dc5490602401600060405180830381600087803b15801561160a57600080fd5b505af192505050801561161b575060015b50604080516001808252818301909252600091602080830190803683370190505090508181600081518110611652576116526120ae565b60209081029190910101526005546040516344a1c3b160e11b81526001600160a01b039091169063894387629061168d908490600401611e9c565b600060405180830381600087803b1580156116a757600080fd5b505af19250505080156116b8575060015b50600654604051635050613160e01b815260048101849052600160248201526104b06044820152604b60648201526001600160a01b039091169063505061319060840161074f565b61170861173e565b6001600160a01b03811661173257604051631e4fbdf760e01b8152600060048201526024016110be565b61173b8161176b565b50565b6000546001600160a01b0316331461104f5760405163118cdaa760e01b81523360048201526024016110be565b600080546001600160a01b038381166001600160a01b0319831681178455604051919092169283917f8be0079c531659141344cd1fd0a4f28419497f9722a3daafe3b4186f6b6457e09190a35050565b600081518084526020808501945080840160005b838110156117eb578151875295820195908201906001016117cf565b509495945050505050565b60808152600061180960808301876117bb565b6020830195909552506040810192909252606090910152919050565b80356001600160401b038116811461183c57600080fd5b919050565b803563ffffffff8116811461183c57600080fd5b6000806000806080858703121561186b57600080fd5b8435935061187b60208601611825565b925061188960408601611841565b9396929550929360600135925050565b600080604083850312156118ac57600080fd5b50508035926020909101359150565b634e487b7160e01b600052604160045260246000fd5b60405160e081016001600160401b03811182821017156118f3576118f36118bb565b60405290565b60405161010081016001600160401b03811182821017156118f3576118f36118bb565b604051601f8201601f191681016001600160401b0381118282101715611944576119446118bb565b604052919050565b60006001600160401b03821115611965576119656118bb565b5060051b60200190565b600082601f83011261198057600080fd5b813560206119956119908361194c565b61191c565b82815260059290921b840181019181810190868411156119b457600080fd5b8286015b848110156119cf57803583529183019183016119b8565b509695505050505050565b6000602082840312156119ec57600080fd5b81356001600160401b03811115611a0257600080fd5b611a0e8482850161196f565b949350505050565b600060208284031215611a2857600080fd5b5035919050565b60005b83811015611a4a578181015183820152602001611a32565b50506000910152565b60008151808452611a6b816020860160208601611a2f565b601f01601f19169290920160200192915050565b6000610100825184526020830151816020860152611a9f82860182611a53565b915050604083015160408501526060830151606085015260808301511515608085015260018060a01b0360a08401511660a085015260c083015160c085015260e083015160e08501528091505092915050565b60c081526000875160e060c0840152611b0f6101a0840182611a53565b60208a015160e085015260408a015161010085015260608a0151151561012085015260808a01516001600160a01b031661014085015260a08a015161016085015260c08a015184820360bf1901610180860152909150611b6f8282611a53565b9150508281036020840152611b848189611a7f565b915050856040830152846060830152836080830152611ba760a083018415159052565b979650505050505050565b6001600160a01b038116811461173b57600080fd5b60006001600160401b03821115611be057611be06118bb565b50601f01601f191660200190565b600082601f830112611bff57600080fd5b8135611c0d61199082611bc7565b818152846020838601011115611c2257600080fd5b816020850160208301376000918101602001919091529392505050565b600080600080600060a08688031215611c5757600080fd5b8535611c6281611bb2565b945060208601356001600160401b0380821115611c7e57600080fd5b611c8a89838a01611bee565b955060408801359450606088013593506080880135915080821115611cae57600080fd5b50611cbb88828901611bee565b9150509295509295909350565b8315158152606060208201526000611ce36060830185611a53565b8281036040840152611cf58185611a53565b9695505050505050565b60008060008060808587031215611d1557600080fd5b84356001600160401b03811115611d2b57600080fd5b611d378782880161196f565b94505061187b60208601611825565b60008060408385031215611d5957600080fd5b8235915060208301356001600160401b03811115611d7657600080fd5b611d8285828601611bee565b9150509250929050565b600080600080600060a08688031215611da457600080fd5b8535945060208601359350611dbb60408701611825565b9250611dc960608701611841565b949793965091946080013592915050565b600060208284031215611dec57600080fd5b8135611df781611bb2565b9392505050565b60006020808385031215611e1157600080fd5b82516001600160401b03811115611e2757600080fd5b8301601f81018513611e3857600080fd5b8051611e466119908261194c565b81815260059190911b82018301908381019087831115611e6557600080fd5b928401925b82841015611ba757835182529284019290840190611e6a565b600060208284031215611e9557600080fd5b5051919050565b602081526000611df760208301846117bb565b6000611ebd61199084611bc7565b9050828152838383011115611ed157600080fd5b611df7836020830184611a2f565b600082601f830112611ef057600080fd5b611df783835160208501611eaf565b8051801515811461183c57600080fd5b805161183c81611bb2565b600060208284031215611f2c57600080fd5b81516001600160401b0380821115611f4357600080fd5b9083019060e08286031215611f5757600080fd5b611f5f6118d1565b825182811115611f6e57600080fd5b611f7a87828601611edf565b8252506020830151602082015260408301516040820152611f9d60608401611eff565b6060820152611fae60808401611f0f565b608082015260a083015160a082015260c083015182811115611fcf57600080fd5b611fdb87828601611edf565b60c08301525095945050505050565b600060208284031215611ffc57600080fd5b81516001600160401b038082111561201357600080fd5b90830190610100828603121561202857600080fd5b6120306118f9565b8251815260208301518281111561204657600080fd5b61205287828601611edf565b602083015250604083015160408201526060830151606082015261207860808401611eff565b608082015261208960a08401611f0f565b60a082015260c083015160c082015260e083015160e082015280935050505092915050565b634e487b7160e01b600052603260045260246000fd5b6000600182016120e457634e487b7160e01b600052601160045260246000fd5b5060010190565b6000806000806080858703121561210157600080fd5b845161210c81611bb2565b809450506020850151925060408501519150606085015160ff8116811461213257600080fd5b939692955090935050565b6001600160a01b038616815260a06020820181905260009061216190830187611a53565b856040840152846060840152828103608084015261217f8185611a53565b98975050505050505050565b60006020828403121561219d57600080fd5b611df782611eff565b6000602082840312156121b857600080fd5b81516001600160401b038111156121ce57600080fd5b8201601f810184136121df57600080fd5b611a0e84825160208401611eaf565b60808152600061220160808301876117bb565b6001600160401b039590951660208301525063ffffffff929092166040830152606090910152919050565b828152604060208201526000611a0e6040830184611a5356fea2646970667358221220f8aa399da87feb9def2bc1c2b83da18df32f2d6ca6b6836f53b47f61646bb22264736f6c63430008140033",
  "linkReferences": {},
  "deployedLinkReferences": {}
}