{
  "_format": "hh-sol-artifact-1",
  "contractName": "WaternityRouter",
  "sourceName": "contracts/WaternityRouter.sol",
  "abi": [
    {
      "inputs": [
        {
          "internalType": "address",
          "name": "_waterNFT",
          "type": "address"
        },
        {
          "internalType": "address",
          "name": "_wellRegistry",
          "type": "address"
        },
        {
          "internalType": "address",
          "name": "_stakingVault",
          "type": "address"
        },
        {
          "internalType": "address",
          "name": "",
          "type": "address"
        },
        {
          "internalType": "address",
          "name": "",
          "type": "address"
        },
        {
          "internalType": "address",
          "name": "",
          "type": "address"
        }
      ],
      "stateMutability": "nonpayable",
      "type": "constructor"
    },
    {
      "anonymous": false,
      "inputs": [],
      "name": "ContractsInitialized",
      "type": "event"
    },
    {
      "inputs": [
        {
          "internalType": "uint256",
          "name": "tokenId",
          "type": "uint256"
        }
      ],
      "name": "getWellDetails",
      "outputs": [
        {
          "components": [
            {
              "internalType": "string",
              "name": "location",
              "type": "string"
            },
            {
              "internalType": "uint256",
              "name": "capacity",
              "type": "uint256"
            },
            {
              "internalType": "uint256",
              "name": "peopleServed",
              "type": "uint256"
            },
            {
              "internalType": "bool",
              "name": "isActive",
              "type": "bool"
            },
            {
              "internalType": "address",
              "name": "fieldPartner",
              "type": "address"
            },
            {
              "internalType": "uint256",
              "name": "createdAt",
              "type": "uint256"
            },
            {
              "internalType": "string",
              "name": "metadataURI",
              "type": "string"
            }
          ],
          "internalType": "struct WaterNFT.WellData",
          "name": "wellData",
          "type": "tuple"
        },
        {
          "components": [
            {
              "internalType": "uint256",
              "name": "tokenId",
              "type": "uint256"
            },
            {
              "internalType": "string",
              "name": "location",
              "type": "string"
            },
            {
              "internalType": "uint256",
              "name": "capacity",
              "type": "uint256"
            },
            {
              "internalType": "uint256",
              "name": "peopleServed",
              "type": "uint256"
            },
            {
              "internalType": "bool",
              "name": "isActive",
              "type": "bool"
            },
            {
              "internalType": "address",
              "name": "fieldPartner",
              "type": "address"
            },
            {
              "internalType": "uint256",
              "name": "totalStaked",
              "type": "uint256"
            },
            {
              "internalType": "uint256",
              "name": "impactScore",
              "type": "uint256"
            }
          ],
          "internalType": "struct WellRegistry.WellInfo",
          "name": "registryInfo",
          "type": "tuple"
        },
        {
          "internalType": "uint256",
          "name": "pendingRewards",
          "type": "uint256"
        }
      ],
      "stateMutability": "view",
      "type": "function"
    },
    {
      "inputs": [
        {
          "internalType": "uint256",
          "name": "tokenId",
          "type": "uint256"
        },
        {
          "internalType": "uint256",
          "name": "amount",
          "type": "uint256"
        }
      ],
      "name": "stakeAndRegister",
      "outputs": [],
      "stateMutability": "nonpayable",
      "type": "function"
    },
    {
      "inputs": [],
      "name": "stakingVault",
      "outputs": [
        {
          "internalType": "contract StakingVault",
          "name": "",
          "type": "address"
        }
      ],
      "stateMutability": "view",
      "type": "function"
    },
    {
      "inputs": [],
      "name": "waterNFT",
      "outputs": [
        {
          "internalType": "contract WaterNFT",
          "name": "",
          "type": "address"
        }
      ],
      "stateMutability": "view",
      "type": "function"
    },
    {
      "inputs": [],
      "name": "wellRegistry",
      "outputs": [
        {
          "internalType": "contract WellRegistry",
          "name": "",
          "type": "address"
        }
      ],
      "stateMutability": "view",
      "type": "function"
    }
  ],
  "bytecode": "0x608060405234801561001057600080fd5b5060405161097938038061097983398101604081905261002f916100b6565b600080546001600160a01b038089166001600160a01b03199283161783556001805489831690841617905560028054918816919092161790556040517f0a6ad9b2f50a4b0252fac42f65a1513f4b7c26386616d3637e9bf7b51c12648f9190a150505050505061012a565b80516001600160a01b03811681146100b157600080fd5b919050565b60008060008060008060c087890312156100cf57600080fd5b6100d88761009a565b95506100e66020880161009a565b94506100f46040880161009a565b93506101026060880161009a565b92506101106080880161009a565b915061011e60a0880161009a565b90509295509295509295565b610840806101396000396000f3fe608060405234801561001057600080fd5b50600436106100575760003560e01c806324e7964a1461005c57806384af40d71461008c5780638f94eb3a146100a1578063983c88a8146100b4578063c6583069146100d6575b600080fd5b60025461006f906001600160a01b031681565b6040516001600160a01b0390911681526020015b60405180910390f35b61009f61009a3660046103a8565b6100e9565b005b60005461006f906001600160a01b031681565b6100c76100c23660046103ca565b6101aa565b604051610083939291906104a6565b60015461006f906001600160a01b031681565b60015460405163303eae4f60e01b8152600481018490526001600160a01b039091169063303eae4f90602401600060405180830381600087803b15801561012f57600080fd5b505af1925050508015610140575060015b506002546040516307b0472f60e41b815260048101849052602481018390526001600160a01b0390911690637b0472f090604401600060405180830381600087803b15801561018e57600080fd5b505af11580156101a2573d6000803e3d6000fd5b505050505050565b6101f56040518060e0016040528060608152602001600081526020016000815260200160001515815260200160006001600160a01b0316815260200160008152602001606081525090565b6102486040518061010001604052806000815260200160608152602001600081526020016000815260200160001515815260200160006001600160a01b0316815260200160008152602001600081525090565b60008054604051633aaf0fd760e11b8152600481018690526001600160a01b039091169063755e1fae90602401600060405180830381865afa158015610292573d6000803e3d6000fd5b505050506040513d6000823e601f3d908101601f191682016040526102ba919081019061065b565b600154604051633055340160e21b8152600481018790529194506001600160a01b03169063c154d00490602401600060405180830381865afa158015610304573d6000803e3d6000fd5b505050506040513d6000823e601f3d908101601f1916820160405261032c919081019061072c565b600254604051633939f1ad60e21b8152336004820152602481018790529193506001600160a01b03169063e4e7c6b490604401602060405180830381865afa15801561037c573d6000803e3d6000fd5b505050506040513d601f19601f820116820180604052508101906103a091906107f1565b929491935050565b600080604083850312156103bb57600080fd5b50508035926020909101359150565b6000602082840312156103dc57600080fd5b5035919050565b60005b838110156103fe5781810151838201526020016103e6565b50506000910152565b6000815180845261041f8160208601602086016103e3565b601f01601f19169290920160200192915050565b600061010082518452602083015181602086015261045382860182610407565b915050604083015160408501526060830151606085015260808301511515608085015260018060a01b0360a08401511660a085015260c083015160c085015260e083015160e08501528091505092915050565b606081526000845160e060608401526104c3610140840182610407565b905060208601516080840152604086015160a08401526060860151151560c084015260018060a01b0360808701511660e084015260a086015161010084015260c0860151605f198483030161012085015261051e8282610407565b91505082810360208401526105338186610433565b915050826040830152949350505050565b634e487b7160e01b600052604160045260246000fd5b60405160e0810167ffffffffffffffff8111828210171561057d5761057d610544565b60405290565b604051610100810167ffffffffffffffff8111828210171561057d5761057d610544565b600082601f8301126105b857600080fd5b815167ffffffffffffffff808211156105d3576105d3610544565b604051601f8301601f19908116603f011681019082821181831017156105fb576105fb610544565b8160405283815286602085880101111561061457600080fd5b6106258460208301602089016103e3565b9695505050505050565b8051801515811461063f57600080fd5b919050565b80516001600160a01b038116811461063f57600080fd5b60006020828403121561066d57600080fd5b815167ffffffffffffffff8082111561068557600080fd5b9083019060e0828603121561069957600080fd5b6106a161055a565b8251828111156106b057600080fd5b6106bc878286016105a7565b82525060208301516020820152604083015160408201526106df6060840161062f565b60608201526106f060808401610644565b608082015260a083015160a082015260c08301518281111561071157600080fd5b61071d878286016105a7565b60c08301525095945050505050565b60006020828403121561073e57600080fd5b815167ffffffffffffffff8082111561075657600080fd5b90830190610100828603121561076b57600080fd5b610773610583565b8251815260208301518281111561078957600080fd5b610795878286016105a7565b60208301525060408301516040820152606083015160608201526107bb6080840161062f565b60808201526107cc60a08401610644565b60a082015260c083015160c082015260e083015160e082015280935050505092915050565b60006020828403121561080357600080fd5b505191905056fea2646970667358221220a5a6d9558c358e4ee037da77dad283712b4e7b0a49f4a10aa5a06f4a863042e064736f6c63430008140033",
  "linkReferences": {},
  "deployedLinkReferences": {}
}