{
  "_format": "hh-sol-artifact-1",
  "contractName": "ChainlinkAutomation",
  "sourceName": "contracts/ChainlinkAutomation.sol",
  "abi": [
    {
      "inputs": [
        {
          "internalType": "address",
          "name": "_stakingVault",
          "type": "address"
        }
      ],
      "stateMutability": "nonpayable",
      "type": "constructor"
    },
    {
      "inputs": [
        {
          "internalType": "address",
          "name": "owner",
          "type": "address"
        }
      ],
      "name": "OwnableInvalidOwner",
      "type": "error"
    },
    {
      "inputs": [
        {
          "internalType": "address",
          "name": "account",
          "type": "address"
        }
      ],
      "name": "OwnableUnauthorizedAccount",
      "type": "error"
    },
    {
      "anonymous": false,
      "inputs": [
        {
          "indexed": true,
          "internalType": "address",
          "name": "previousOwner",
          "type": "address"
        },
        {
          "indexed": true,
          "internalType": "address",
          "name": "newOwner",
          "type": "address"
        }
      ],
      "name": "OwnershipTransferred",
      "type": "event"
    },
    {
      "anonymous": false,
      "inputs": [
        {
          "indexed": true,
          "internalType": "uint256",
          "name": "timestamp",
          "type": "uint256"
        },
        {
          "indexed": false,
          "internalType": "uint256",
          "name": "wellsProcessed",
          "type": "uint256"
        }
      ],
      "name": "UpkeepPerformed",
      "type": "event"
    },
    {
      "anonymous": false,
      "inputs": [
        {
          "indexed": true,
          "internalType": "uint256",
          "name": "tokenId",
          "type": "uint256"
        }
      ],
      "name": "WellAddedToAutomation",
      "type": "event"
    },
    {
      "anonymous": false,
      "inputs": [
        {
          "indexed": true,
          "internalType": "uint256",
          "name": "tokenId",
          "type": "uint256"
        },
        {
          "indexed": false,
          "internalType": "uint256",
          "name": "newRate",
          "type": "uint256"
        }
      ],
      "name": "YieldRateUpdated",
      "type": "event"
    },
    {
      "inputs": [
        {
          "internalType": "uint256",
          "name": "",
          "type": "uint256"
        }
      ],
      "name": "activeWells",
      "outputs": [
        {
          "internalType": "uint256",
          "name": "",
          "type": "uint256"
        }
      ],
      "stateMutability": "view",
      "type": "function"
    },
    {
      "inputs": [
        {
          "internalType": "uint256",
          "name": "tokenId",
          "type": "uint256"
        }
      ],
      "name": "addWellToAutomation",
      "outputs": [],
      "stateMutability": "nonpayable",
      "type": "function"
    },
    {
      "inputs": [
        {
          "internalType": "bytes",
          "name": "",
          "type": "bytes"
        }
      ],
      "name": "checkUpkeep",
      "outputs": [
        {
          "internalType": "bool",
          "name": "upkeepNeeded",
          "type": "bool"
        },
        {
          "internalType": "bytes",
          "name": "performData",
          "type": "bytes"
        }
      ],
      "stateMutability": "view",
      "type": "function"
    },
    {
      "inputs": [],
      "name": "getActiveWells",
      "outputs": [
        {
          "internalType": "uint256[]",
          "name": "",
          "type": "uint256[]"
        }
      ],
      "stateMutability": "view",
      "type": "function"
    },
    {
      "inputs": [],
      "name": "interval",
      "outputs": [
        {
          "internalType": "uint256",
          "name": "",
          "type": "uint256"
        }
      ],
      "stateMutability": "view",
      "type": "function"
    },
    {
      "inputs": [],
      "name": "lastTimeStamp",
      "outputs": [
        {
          "internalType": "uint256",
          "name": "",
          "type": "uint256"
        }
      ],
      "stateMutability": "view",
      "type": "function"
    },
    {
      "inputs": [],
      "name": "owner",
      "outputs": [
        {
          "internalType": "address",
          "name": "",
          "type": "address"
        }
      ],
      "stateMutability": "view",
      "type": "function"
    },
    {
      "inputs": [
        {
          "internalType": "bytes",
          "name": "performData",
          "type": "bytes"
        }
      ],
      "name": "performUpkeep",
      "outputs": [],
      "stateMutability": "nonpayable",
      "type": "function"
    },
    {
      "inputs": [],
      "name": "renounceOwnership",
      "outputs": [],
      "stateMutability": "nonpayable",
      "type": "function"
    },
    {
      "inputs": [
        {
          "internalType": "uint256",
          "name": "_newInterval",
          "type": "uint256"
        }
      ],
      "name": "setInterval",
      "outputs": [],
      "stateMutability": "nonpayable",
      "type": "function"
    },
    {
      "inputs": [
        {
          "internalType": "address",
          "name": "_newVault",
          "type": "address"
        }
      ],
      "name": "setStakingVault",
      "outputs": [],
      "stateMutability": "nonpayable",
      "type": "function"
    },
    {
      "inputs": [],
      "name": "stakingVault",
      "outputs": [
        {
          "internalType": "contract StakingVault",
          "name": "",
          "type": "address"
        }
      ],
      "stateMutability": "view",
      "type": "function"
    },
    {
      "inputs": [
        {
          "internalType": "address",
          "name": "newOwner",
          "type": "address"
        }
      ],
      "name": "transferOwnership",
      "outputs": [],
      "stateMutability": "nonpayable",
      "type": "function"
    },
    {
      "inputs": [],
      "name": "upkeepCounter",
      "outputs": [
        {
          "internalType": "uint256",
          "name": "",
          "type": "uint256"
        }
      ],
      "stateMutability": "view",
      "type": "function"
    }
  ],
  "bytecode": "0x6080604052610e1060025534801561001657600080fd5b50604051610a46380380610a46833981016040819052610035916100de565b338061005b57604051631e4fbdf760e01b81526000600482015260240160405180910390fd5b6100648161008e565b50600180546001600160a01b0319166001600160a01b03929092169190911790554260035561010e565b600080546001600160a01b038381166001600160a01b0319831681178455604051919092169283917f8be0079c531659141344cd1fd0a4f28419497f9722a3daafe3b4186f6b6457e09190a35050565b6000602082840312156100f057600080fd5b81516001600160a01b038116811461010757600080fd5b9392505050565b6109298061011d6000396000f3fe608060405234801561001057600080fd5b50600436106100ea5760003560e01c80636e04ff0d1161008c578063947a36fb11610066578063947a36fb146101d3578063a3d3c0d2146101dc578063f2fde38b146101e5578063fe560792146101f857600080fd5b80636e04ff0d14610199578063715018a6146101ba5780638da5cb5b146101c257600080fd5b80634585e33b116100c85780634585e33b1461014b57806347a3dc541461015e57806359adf5931461017157806360602b9f1461018457600080fd5b806322a90082146100ef57806324e7964a146101045780633f3b3b2714610134575b600080fd5b6101026100fd3660046106f0565b61020b565b005b600154610117906001600160a01b031681565b6040516001600160a01b0390911681526020015b60405180910390f35b61013d60035481565b60405190815260200161012b565b610102610159366004610709565b610218565b61010261016c3660046106f0565b6103c4565b61013d61017f3660046106f0565b610474565b61018c610495565b60405161012b919061077b565b6101ac6101a7366004610709565b6104ed565b60405161012b9291906107bf565b610102610536565b6000546001600160a01b0316610117565b61013d60025481565b61013d60055481565b6101026101f3366004610817565b61054a565b610102610206366004610817565b610585565b6102136105af565b600255565b600254600354610228904261085d565b1161026e5760405162461bcd60e51b8152602060048201526011602482015270155c1ad9595c081b9bdd081b9959591959607a1b60448201526064015b60405180910390fd5b426003556005805490600061028283610876565b91905055506000805b600454811015610384576000600482815481106102aa576102aa61088f565b9060005260206000200154905060006102c2826105dc565b60015460405163db1717cd60e01b815260048101859052602481018390529192506001600160a01b03169063db1717cd90604401600060405180830381600087803b15801561031057600080fd5b505af1158015610324573d6000803e3d6000fd5b50505050817f4959ad9023bf5b492922b51fbc7c0b5e5ec66aa39700e0da6d8af9b2d430898e8260405161035a91815260200190565b60405180910390a28361036c81610876565b9450505050808061037c90610876565b91505061028b565b50427f9fbc2aeb5bf6200e5499d345acddf1dd462c37becb4673d661250b89ced7ff6a826040516103b791815260200190565b60405180910390a2505050565b6103cc6105af565b60005b6004548110156104135781600482815481106103ed576103ed61088f565b906000526020600020015403610401575050565b8061040b81610876565b9150506103cf565b506004805460018101825560009182527f8a35acfbc15ff81a39ae7d344fd709f28e8600b4aa8c65c6b64bfe7fe36bd19b0182905560405182917f24921c1d0c2c38e8e5f1934ab0c1bb0787c16bfe442721584b9738b475a2154b91a25b50565b6004818154811061048457600080fd5b600091825260209091200154905081565b606060048054806020026020016040519081016040528092919081815260200182805480156104e357602002820191906000526020600020905b8154815260200190600101908083116104cf575b5050505050905090565b6000606060025460035442610502919061085d565b60045460405192909111935061051e9160200190815260200190565b60405160208183030381529060405290509250929050565b61053e6105af565b61054860006106a0565b565b6105526105af565b6001600160a01b03811661057c57604051631e4fbdf760e01b815260006004820152602401610265565b610471816106a0565b61058d6105af565b600180546001600160a01b0319166001600160a01b0392909216919091179055565b6000546001600160a01b031633146105485760405163118cdaa760e01b8152336004820152602401610265565b600154604051633d22638560e01b81526004810183905260009182916001600160a01b0390911690633d22638590602401602060405180830381865afa15801561062a573d6000803e3d6000fd5b505050506040513d601f19601f8201168201806040525081019061064e91906108a5565b905061012c6402540be400821115610668575060fa61067a565b64012a05f20082111561067a57506101185b6000603260055461068b91906108be565b905061069781836108e0565b95945050505050565b600080546001600160a01b038381166001600160a01b0319831681178455604051919092169283917f8be0079c531659141344cd1fd0a4f28419497f9722a3daafe3b4186f6b6457e09190a35050565b60006020828403121561070257600080fd5b5035919050565b6000806020838503121561071c57600080fd5b823567ffffffffffffffff8082111561073457600080fd5b818501915085601f83011261074857600080fd5b81358181111561075757600080fd5b86602082850101111561076957600080fd5b60209290920196919550909350505050565b6020808252825182820181905260009190848201906040850190845b818110156107b357835183529284019291840191600101610797565b50909695505050505050565b821515815260006020604081840152835180604085015260005b818110156107f5578581018301518582016060015282016107d9565b506000606082860101526060601f19601f830116850101925050509392505050565b60006020828403121561082957600080fd5b81356001600160a01b038116811461084057600080fd5b9392505050565b634e487b7160e01b600052601160045260246000fd5b8181038181111561087057610870610847565b92915050565b60006001820161088857610888610847565b5060010190565b634e487b7160e01b600052603260045260246000fd5b6000602082840312156108b757600080fd5b5051919050565b6000826108db57634e487b7160e01b600052601260045260246000fd5b500690565b808201808211156108705761087061084756fea26469706673582212200a56f75b655521c6469b25f85c98e8e6d49f8261688bb3d15436f0fcce5ee42b64736f6c63430008140033",
  "linkReferences": {},
  "deployedLinkReferences": {}
}