{
  "_format": "hh-sol-artifact-1",
  "contractName": "ChainlinkDataFeeds",
  "sourceName": "contracts/ChainlinkDataFeeds.sol",
  "abi": [
    {
      "inputs": [
        {
          "internalType": "address",
          "name": "_priceFeed",
          "type": "address"
        },
        {
          "internalType": "address",
          "name": "_stakingVault",
          "type": "address"
        }
      ],
      "stateMutability": "nonpayable",
      "type": "constructor"
    },
    {
      "inputs": [
        {
          "internalType": "address",
          "name": "owner",
          "type": "address"
        }
      ],
      "name": "OwnableInvalidOwner",
      "type": "error"
    },
    {
      "inputs": [
        {
          "internalType": "address",
          "name": "account",
          "type": "address"
        }
      ],
      "name": "OwnableUnauthorizedAccount",
      "type": "error"
    },
    {
      "anonymous": false,
      "inputs": [
        {
          "indexed": true,
          "internalType": "address",
          "name": "previousOwner",
          "type": "address"
        },
        {
          "indexed": true,
          "internalType": "address",
          "name": "newOwner",
          "type": "address"
        }
      ],
      "name": "OwnershipTransferred",
      "type": "event"
    },
    {
      "anonymous": false,
      "inputs": [
        {
          "indexed": false,
          "internalType": "int256",
          "name": "newPrice",
          "type": "int256"
        },
        {
          "indexed": false,
          "internalType": "uint256",
          "name": "timestamp",
          "type": "uint256"
        }
      ],
      "name": "PriceUpdated",
      "type": "event"
    },
    {
      "anonymous": false,
      "inputs": [
        {
          "indexed": true,
          "internalType": "uint256",
          "name": "tokenId",
          "type": "uint256"
        },
        {
          "indexed": false,
          "internalType": "uint256",
          "name": "newRate",
          "type": "uint256"
        },
        {
          "indexed": false,
          "internalType": "int256",
          "name": "triggerPrice",
          "type": "int256"
        }
      ],
      "name": "YieldRateAdjusted",
      "type": "event"
    },
    {
      "inputs": [],
      "name": "HIGH_PRICE_THRESHOLD",
      "outputs": [
        {
          "internalType": "int256",
          "name": "",
          "type": "int256"
        }
      ],
      "stateMutability": "view",
      "type": "function"
    },
    {
      "inputs": [],
      "name": "HIGH_YIELD_RATE",
      "outputs": [
        {
          "internalType": "uint256",
          "name": "",
          "type": "uint256"
        }
      ],
      "stateMutability": "view",
      "type": "function"
    },
    {
      "inputs": [],
      "name": "LOW_PRICE_THRESHOLD",
      "outputs": [
        {
          "internalType": "int256",
          "name": "",
          "type": "int256"
        }
      ],
      "stateMutability": "view",
      "type": "function"
    },
    {
      "inputs": [],
      "name": "LOW_YIELD_RATE",
      "outputs": [
        {
          "internalType": "uint256",
          "name": "",
          "type": "uint256"
        }
      ],
      "stateMutability": "view",
      "type": "function"
    },
    {
      "inputs": [],
      "name": "NORMAL_YIELD_RATE",
      "outputs": [
        {
          "internalType": "uint256",
          "name": "",
          "type": "uint256"
        }
      ],
      "stateMutability": "view",
      "type": "function"
    },
    {
      "inputs": [
        {
          "internalType": "int256",
          "name": "price",
          "type": "int256"
        }
      ],
      "name": "calculateYieldFromPrice",
      "outputs": [
        {
          "internalType": "uint256",
          "name": "",
          "type": "uint256"
        }
      ],
      "stateMutability": "pure",
      "type": "function"
    },
    {
      "inputs": [],
      "name": "getCurrentYieldRate",
      "outputs": [
        {
          "internalType": "uint256",
          "name": "",
          "type": "uint256"
        }
      ],
      "stateMutability": "view",
      "type": "function"
    },
    {
      "inputs": [],
      "name": "getLatestPrice",
      "outputs": [
        {
          "internalType": "int256",
          "name": "",
          "type": "int256"
        }
      ],
      "stateMutability": "view",
      "type": "function"
    },
    {
      "inputs": [],
      "name": "getPriceFeedInfo",
      "outputs": [
        {
          "internalType": "address",
          "name": "feedAddress",
          "type": "address"
        },
        {
          "internalType": "int256",
          "name": "latestPrice",
          "type": "int256"
        },
        {
          "internalType": "uint256",
          "name": "lastUpdate",
          "type": "uint256"
        },
        {
          "internalType": "uint8",
          "name": "decimals",
          "type": "uint8"
        }
      ],
      "stateMutability": "view",
      "type": "function"
    },
    {
      "inputs": [],
      "name": "lastPrice",
      "outputs": [
        {
          "internalType": "int256",
          "name": "",
          "type": "int256"
        }
      ],
      "stateMutability": "view",
      "type": "function"
    },
    {
      "inputs": [],
      "name": "lastUpdateTimestamp",
      "outputs": [
        {
          "internalType": "uint256",
          "name": "",
          "type": "uint256"
        }
      ],
      "stateMutability": "view",
      "type": "function"
    },
    {
      "inputs": [],
      "name": "owner",
      "outputs": [
        {
          "internalType": "address",
          "name": "",
          "type": "address"
        }
      ],
      "stateMutability": "view",
      "type": "function"
    },
    {
      "inputs": [],
      "name": "renounceOwnership",
      "outputs": [],
      "stateMutability": "nonpayable",
      "type": "function"
    },
    {
      "inputs": [
        {
          "internalType": "address",
          "name": "_newPriceFeed",
          "type": "address"
        }
      ],
      "name": "setPriceFeed",
      "outputs": [],
      "stateMutability": "nonpayable",
      "type": "function"
    },
    {
      "inputs": [
        {
          "internalType": "address",
          "name": "_newVault",
          "type": "address"
        }
      ],
      "name": "setStakingVault",
      "outputs": [],
      "stateMutability": "nonpayable",
      "type": "function"
    },
    {
      "inputs": [],
      "name": "stakingVault",
      "outputs": [
        {
          "internalType": "contract StakingVault",
          "name": "",
          "type": "address"
        }
      ],
      "stateMutability": "view",
      "type": "function"
    },
    {
      "inputs": [
        {
          "internalType": "address",
          "name": "newOwner",
          "type": "address"
        }
      ],
      "name": "transferOwnership",
      "outputs": [],
      "stateMutability": "nonpayable",
      "type": "function"
    },
    {
      "inputs": [],
      "name": "updateAllWellsYield",
      "outputs": [],
      "stateMutability": "nonpayable",
      "type": "function"
    },
    {
      "inputs": [
        {
          "internalType": "uint256[]",
          "name": "tokenIds",
          "type": "uint256[]"
        }
      ],
      "name": "updateYieldBasedOnMarket",
      "outputs": [],
      "stateMutability": "nonpayable",
      "type": "function"
    }
  ],
  "bytecode": "0x608060405234801561001057600080fd5b50604051610b89380380610b8983398101604081905261002f91610100565b338061005557604051631e4fbdf760e01b81526000600482015260240160405180910390fd5b61005e81610094565b50600180546001600160a01b039384166001600160a01b0319918216179091556002805492909316911617905542600355610133565b600080546001600160a01b038381166001600160a01b0319831681178455604051919092169283917f8be0079c531659141344cd1fd0a4f28419497f9722a3daafe3b4186f6b6457e09190a35050565b80516001600160a01b03811681146100fb57600080fd5b919050565b6000806040838503121561011357600080fd5b61011c836100e4565b915061012a602084016100e4565b90509250929050565b610a47806101426000396000f3fe608060405234801561001057600080fd5b50600436106101215760003560e01c806389438762116100ad578063b2d728c811610071578063b2d728c814610221578063b76a39901461022d578063e538245414610236578063f2fde38b14610249578063fe5607921461025c57600080fd5b806389438762146101b75780638da5cb5b146101ca5780638e15f473146101db57806394c061d5146101e3578063a76752b8146101ec57600080fd5b806345c80801116100f457806345c8080114610182578063515d1f8b1461018a578063715018a614610192578063724e78da1461019c57806378effc2b146101af57600080fd5b8063053f14da1461012657806314bcec9f1461014257806324e7964a1461014b5780633a8d29cf14610176575b600080fd5b61012f60045481565b6040519081526020015b60405180910390f35b61012f60035481565b60025461015e906001600160a01b031681565b6040516001600160a01b039091168152602001610139565b61012f642e90edd00081565b61012f61026f565b61012f60c881565b61019a61028b565b005b61019a6101aa36600461082a565b61029f565b61019a6102c9565b61019a6101c5366004610870565b6103ef565b6000546001600160a01b031661015e565b61012f6105a6565b61012f61012c81565b6101f461067f565b604080516001600160a01b03909516855260208501939093529183015260ff166060820152608001610139565b61012f6422ecb25c0081565b61012f61019081565b61012f61024436600461092e565b61070c565b61019a61025736600461082a565b610745565b61019a61026a36600461082a565b610783565b60008061027a6105a6565b90506102858161070c565b91505090565b6102936107ad565b61029d60006107da565b565b6102a76107ad565b600180546001600160a01b0319166001600160a01b0392909216919091179055565b60006102d36105a6565b60048190554260038190556040519192507fdb6fb3cf4cc5fb760bcd63b958a53b2396776dff32c063188e864296541e76bd9161031891848252602082015260400190565b60405180910390a1600061032b8261070c565b905060005b60058110156103ea5760025460405163db1717cd60e01b815260048101839052602481018490526001600160a01b039091169063db1717cd90604401600060405180830381600087803b15801561038657600080fd5b505af1925050508015610397575060015b156103d857604080518381526020810185905282917fa316de56984a8b203b64d725ad456d4e980223c30db822ead974d2102b16f199910160405180910390a25b806103e281610947565b915050610330565b505050565b600081511161043a5760405162461bcd60e51b8152602060048201526012602482015271139bc81d1bdad95b9cc81c1c9bdd9a59195960721b60448201526064015b60405180910390fd5b60006104446105a6565b60048190554260038190556040519192507fdb6fb3cf4cc5fb760bcd63b958a53b2396776dff32c063188e864296541e76bd9161048991848252602082015260400190565b60405180910390a16000642e90edd00082126104a857506101906104c1565b6422ecb25c0082136104bc575060c86104c1565b5061012c5b60005b83518110156105a05760008482815181106104e1576104e161096e565b602090810291909101015160025460405163db1717cd60e01b815260048101839052602481018690529192506001600160a01b03169063db1717cd90604401600060405180830381600087803b15801561053a57600080fd5b505af115801561054e573d6000803e3d6000fd5b505060408051868152602081018890528493507fa316de56984a8b203b64d725ad456d4e980223c30db822ead974d2102b16f19992500160405180910390a2508061059881610947565b9150506104c4565b50505050565b600080600080600080600160009054906101000a90046001600160a01b03166001600160a01b031663feaf968c6040518163ffffffff1660e01b815260040160a060405180830381865afa158015610602573d6000803e3d6000fd5b505050506040513d601f19601f82011682018060405250810190610626919061099e565b94509450945094509450600082116106755760405162461bcd60e51b8152602060048201526012602482015271526f756e64206e6f7420636f6d706c65746560701b6044820152606401610431565b5091949350505050565b600154600480546003546040805163313ce56760e01b815290516000958695869586956001600160a01b03909316949093859263313ce567928082019260209290918290030181865afa1580156106da573d6000803e3d6000fd5b505050506040513d601f19601f820116820180604052508101906106fe91906109ee565b935093509350935090919293565b6000642e90edd00082126107235750610190919050565b6422ecb25c008213610737575060c8919050565b5061012c919050565b919050565b61074d6107ad565b6001600160a01b03811661077757604051631e4fbdf760e01b815260006004820152602401610431565b610780816107da565b50565b61078b6107ad565b600280546001600160a01b0319166001600160a01b0392909216919091179055565b6000546001600160a01b0316331461029d5760405163118cdaa760e01b8152336004820152602401610431565b600080546001600160a01b038381166001600160a01b0319831681178455604051919092169283917f8be0079c531659141344cd1fd0a4f28419497f9722a3daafe3b4186f6b6457e09190a35050565b60006020828403121561083c57600080fd5b81356001600160a01b038116811461085357600080fd5b9392505050565b634e487b7160e01b600052604160045260246000fd5b6000602080838503121561088357600080fd5b823567ffffffffffffffff8082111561089b57600080fd5b818501915085601f8301126108af57600080fd5b8135818111156108c1576108c161085a565b8060051b604051601f19603f830116810181811085821117156108e6576108e661085a565b60405291825284820192508381018501918883111561090457600080fd5b938501935b8285101561092257843584529385019392850192610909565b98975050505050505050565b60006020828403121561094057600080fd5b5035919050565b60006001820161096757634e487b7160e01b600052601160045260246000fd5b5060010190565b634e487b7160e01b600052603260045260246000fd5b805169ffffffffffffffffffff8116811461074057600080fd5b600080600080600060a086880312156109b657600080fd5b6109bf86610984565b94506020860151935060408601519250606086015191506109e260808701610984565b90509295509295909350565b600060208284031215610a0057600080fd5b815160ff8116811461085357600080fdfea2646970667358221220d09de73ef7b5d987ee723b1da89875f75fea7527499af3ceea18d2adc5f0d85b64736f6c63430008140033",
  "linkReferences": {},
  "deployedLinkReferences": {}
}