{
  "_format": "hh-sol-artifact-1",
  "contractName": "ChainlinkFunctions",
  "sourceName": "contracts/ChainlinkFunctions.sol",
  "abi": [
    {
      "inputs": [
        {
          "internalType": "address",
          "name": "router",
          "type": "address"
        },
        {
          "internalType": "address",
          "name": "_wellRegistry",
          "type": "address"
        },
        {
          "internalType": "address",
          "name": "_waterNFT",
          "type": "address"
        }
      ],
      "stateMutability": "nonpayable",
      "type": "constructor"
    },
    {
      "inputs": [],
      "name": "EmptyArgs",
      "type": "error"
    },
    {
      "inputs": [],
      "name": "EmptySource",
      "type": "error"
    },
    {
      "inputs": [],
      "name": "NoInlineSecrets",
      "type": "error"
    },
    {
      "inputs": [],
      "name": "OnlyRouterCanFulfill",
      "type": "error"
    },
    {
      "inputs": [
        {
          "internalType": "address",
          "name": "owner",
          "type": "address"
        }
      ],
      "name": "OwnableInvalidOwner",
      "type": "error"
    },
    {
      "inputs": [
        {
          "internalType": "address",
          "name": "account",
          "type": "address"
        }
      ],
      "name": "OwnableUnauthorizedAccount",
      "type": "error"
    },
    {
      "anonymous": false,
      "inputs": [
        {
          "indexed": true,
          "internalType": "bytes32",
          "name": "requestId",
          "type": "bytes32"
        },
        {
          "indexed": false,
          "internalType": "bytes",
          "name": "error",
          "type": "bytes"
        }
      ],
      "name": "ErrorReceived",
      "type": "event"
    },
    {
      "anonymous": false,
      "inputs": [
        {
          "indexed": true,
          "internalType": "address",
          "name": "previousOwner",
          "type": "address"
        },
        {
          "indexed": true,
          "internalType": "address",
          "name": "newOwner",
          "type": "address"
        }
      ],
      "name": "OwnershipTransferred",
      "type": "event"
    },
    {
      "anonymous": false,
      "inputs": [
        {
          "indexed": true,
          "internalType": "bytes32",
          "name": "id",
          "type": "bytes32"
        }
      ],
      "name": "RequestFulfilled",
      "type": "event"
    },
    {
      "anonymous": false,
      "inputs": [
        {
          "indexed": true,
          "internalType": "bytes32",
          "name": "id",
          "type": "bytes32"
        }
      ],
      "name": "RequestSent",
      "type": "event"
    },
    {
      "anonymous": false,
      "inputs": [
        {
          "indexed": true,
          "internalType": "bytes32",
          "name": "requestId",
          "type": "bytes32"
        },
        {
          "indexed": true,
          "internalType": "uint256",
          "name": "tokenId",
          "type": "uint256"
        }
      ],
      "name": "RequestSent",
      "type": "event"
    },
    {
      "anonymous": false,
      "inputs": [
        {
          "indexed": true,
          "internalType": "bytes32",
          "name": "requestId",
          "type": "bytes32"
        },
        {
          "indexed": false,
          "internalType": "bytes",
          "name": "response",
          "type": "bytes"
        }
      ],
      "name": "ResponseReceived",
      "type": "event"
    },
    {
      "anonymous": false,
      "inputs": [
        {
          "indexed": true,
          "internalType": "uint256",
          "name": "tokenId",
          "type": "uint256"
        },
        {
          "indexed": false,
          "internalType": "bool",
          "name": "isActive",
          "type": "bool"
        },
        {
          "indexed": false,
          "internalType": "uint256",
          "name": "capacity",
          "type": "uint256"
        },
        {
          "indexed": false,
          "internalType": "uint256",
          "name": "peopleServed",
          "type": "uint256"
        }
      ],
      "name": "WellDataUpdated",
      "type": "event"
    },
    {
      "inputs": [
        {
          "internalType": "uint256[]",
          "name": "tokenIds",
          "type": "uint256[]"
        },
        {
          "internalType": "uint64",
          "name": "subscriptionId",
          "type": "uint64"
        },
        {
          "internalType": "uint32",
          "name": "gasLimit",
          "type": "uint32"
        },
        {
          "internalType": "bytes32",
          "name": "donID",
          "type": "bytes32"
        }
      ],
      "name": "batchRequestWellData",
      "outputs": [],
      "stateMutability": "nonpayable",
      "type": "function"
    },
    {
      "inputs": [
        {
          "internalType": "bytes32",
          "name": "requestId",
          "type": "bytes32"
        }
      ],
      "name": "getPendingRequest",
      "outputs": [
        {
          "internalType": "uint256",
          "name": "tokenId",
          "type": "uint256"
        },
        {
          "internalType": "bool",
          "name": "inProgress",
          "type": "bool"
        }
      ],
      "stateMutability": "view",
      "type": "function"
    },
    {
      "inputs": [
        {
          "internalType": "bytes32",
          "name": "requestId",
          "type": "bytes32"
        },
        {
          "internalType": "bytes",
          "name": "response",
          "type": "bytes"
        },
        {
          "internalType": "bytes",
          "name": "err",
          "type": "bytes"
        }
      ],
      "name": "handleOracleFulfillment",
      "outputs": [],
      "stateMutability": "nonpayable",
      "type": "function"
    },
    {
      "inputs": [
        {
          "internalType": "uint256",
          "name": "tokenId",
          "type": "uint256"
        },
        {
          "internalType": "bool",
          "name": "isActive",
          "type": "bool"
        },
        {
          "internalType": "uint256",
          "name": "capacity",
          "type": "uint256"
        },
        {
          "internalType": "uint256",
          "name": "peopleServed",
          "type": "uint256"
        }
      ],
      "name": "manuallyUpdateWellData",
      "outputs": [],
      "stateMutability": "nonpayable",
      "type": "function"
    },
    {
      "inputs": [],
      "name": "owner",
      "outputs": [
        {
          "internalType": "address",
          "name": "",
          "type": "address"
        }
      ],
      "stateMutability": "view",
      "type": "function"
    },
    {
      "inputs": [
        {
          "internalType": "bytes32",
          "name": "",
          "type": "bytes32"
        }
      ],
      "name": "pendingRequests",
      "outputs": [
        {
          "internalType": "uint256",
          "name": "",
          "type": "uint256"
        }
      ],
      "stateMutability": "view",
      "type": "function"
    },
    {
      "inputs": [],
      "name": "renounceOwnership",
      "outputs": [],
      "stateMutability": "nonpayable",
      "type": "function"
    },
    {
      "inputs": [
        {
          "internalType": "uint256",
          "name": "tokenId",
          "type": "uint256"
        },
        {
          "internalType": "uint64",
          "name": "subscriptionId",
          "type": "uint64"
        },
        {
          "internalType": "uint32",
          "name": "gasLimit",
          "type": "uint32"
        },
        {
          "internalType": "bytes32",
          "name": "donID",
          "type": "bytes32"
        }
      ],
      "name": "requestWellData",
      "outputs": [
        {
          "internalType": "bytes32",
          "name": "requestId",
          "type": "bytes32"
        }
      ],
      "stateMutability": "nonpayable",
      "type": "function"
    },
    {
      "inputs": [],
      "name": "s_lastError",
      "outputs": [
        {
          "internalType": "bytes",
          "name": "",
          "type": "bytes"
        }
      ],
      "stateMutability": "view",
      "type": "function"
    },
    {
      "inputs": [],
      "name": "s_lastRequestId",
      "outputs": [
        {
          "internalType": "bytes32",
          "name": "",
          "type": "bytes32"
        }
      ],
      "stateMutability": "view",
      "type": "function"
    },
    {
      "inputs": [],
      "name": "s_lastResponse",
      "outputs": [
        {
          "internalType": "bytes",
          "name": "",
          "type": "bytes"
        }
      ],
      "stateMutability": "view",
      "type": "function"
    },
    {
      "inputs": [
        {
          "internalType": "address",
          "name": "_wellRegistry",
          "type": "address"
        },
        {
          "internalType": "address",
          "name": "_waterNFT",
          "type": "address"
        }
      ],
      "name": "setContracts",
      "outputs": [],
      "stateMutability": "nonpayable",
      "type": "function"
    },
    {
      "inputs": [
        {
          "internalType": "address",
          "name": "newOwner",
          "type": "address"
        }
      ],
      "name": "transferOwnership",
      "outputs": [],
      "stateMutability": "nonpayable",
      "type": "function"
    },
    {
      "inputs": [
        {
          "internalType": "uint256",
          "name": "",
          "type": "uint256"
        }
      ],
      "name": "verificationInProgress",
      "outputs": [
        {
          "internalType": "bool",
          "name": "",
          "type": "bool"
        }
      ],
      "stateMutability": "view",
      "type": "function"
    },
    {
      "inputs": [],
      "name": "waterNFT",
      "outputs": [
        {
          "internalType": "contract WaterNFT",
          "name": "",
          "type": "address"
        }
      ],
      "stateMutability": "view",
      "type": "function"
    },
    {
      "inputs": [],
      "name": "wellDataSource",
      "outputs": [
        {
          "internalType": "string",
          "name": "",
          "type": "string"
        }
      ],
      "stateMutability": "view",
      "type": "function"
    },
    {
      "inputs": [],
      "name": "wellRegistry",
      "outputs": [
        {
          "internalType": "contract WellRegistry",
          "name": "",
          "type": "address"
        }
      ],
      "stateMutability": "view",
      "type": "function"
    }
  ],
  "bytecode": "0x60a06040523480156200001157600080fd5b50604051620024d8380380620024d8833981016040819052620000349162000114565b6001600160a01b03831660805233806200006857604051631e4fbdf760e01b81526000600482015260240160405180910390fd5b6200007381620000a7565b50600180546001600160a01b039384166001600160a01b03199182161790915560028054929093169116179055506200015e565b600080546001600160a01b038381166001600160a01b0319831681178455604051919092169283917f8be0079c531659141344cd1fd0a4f28419497f9722a3daafe3b4186f6b6457e09190a35050565b80516001600160a01b03811681146200010f57600080fd5b919050565b6000806000606084860312156200012a57600080fd5b6200013584620000f7565b92506200014560208501620000f7565b91506200015560408501620000f7565b90509250925092565b60805161235762000181600039600081816104fe0152610d4101526123576000f3fe608060405234801561001057600080fd5b506004361061010b5760003560e01c8063715018a6116100a2578063b1e2174911610071578063b1e2174914610261578063c65830691461026a578063d8952a491461027d578063f2fde38b14610290578063f9279e69146102a357600080fd5b8063715018a6146101d657806388b12d55146101de5780638da5cb5b146102295780638f94eb3a1461024e57600080fd5b80634b0795a8116100de5780634b0795a814610180578063505061311461018857806353a6a5cf1461019b5780636589bd0e146101ce57600080fd5b80630b989b7b146101105780630ca76175146101365780632795ad201461014b5780633944ea3a1461016b575b600080fd5b61012361011e366004611888565b6102b6565b6040519081526020015b60405180910390f35b6101496101443660046119b7565b6104f3565b005b610123610159366004611a23565b60066020526000908152604090205481565b610173610577565b60405161012d9190611a8c565b610173610605565b610149610196366004611aad565b610612565b6101be6101a9366004611a23565b60076020526000908152604090205460ff1681565b604051901515815260200161012d565b61017361072b565b61014961074a565b6102146101ec366004611a23565b600090815260066020908152604080832054808452600790925290912054909160ff90911690565b6040805192835290151560208301520161012d565b6000546001600160a01b03165b6040516001600160a01b03909116815260200161012d565b600254610236906001600160a01b031681565b61012360035481565b600154610236906001600160a01b031681565b61014961028b366004611aff565b61075e565b61014961029e366004611b38565b610794565b6101496102b1366004611b55565b6107d2565b60008481526007602052604081205460ff161561031a5760405162461bcd60e51b815260206004820181905260248201527f566572696669636174696f6e20616c726561647920696e2070726f677265737360448201526064015b60405180910390fd5b600254604051633aaf0fd760e11b8152600481018790526000916001600160a01b03169063755e1fae90602401600060405180830381865afa158015610364573d6000803e3d6000fd5b505050506040513d6000823e601f3d908101601f1916820160405261038c9190810190611c6f565b90506103cf6040805160e0810190915280600081526020016000815260200160008152602001606081526020016060815260200160608152602001606081525090565b6103f5604051806102a0016040528061027381526020016120af61027391398290610921565b60408051600280825260608201909252600091816020015b606081526020019060019003908161040d57905050905061042d88610932565b8160008151811061044057610440611d3f565b602002602001018190525082600001518160018151811061046357610463611d3f565b60209081029190910101526104788282610a3a565b61048c61048483610a64565b888888610d3c565b600381815560009182526006602090815260408084208c90558b84526007909152808320805460ff19166001179055905490518a927f7106aad702536308648985e660b725d368593a51be2b5134b4c1b2f884492c8691a350506003549695505050505050565b336001600160a01b037f0000000000000000000000000000000000000000000000000000000000000000161461053c5760405163c6829f8360e01b815260040160405180910390fd5b610547838383610e0e565b60405183907f85e1543bf2f84fe80c6badbce3648c8539ad1df4d2b3d822938ca0538be727e690600090a2505050565b6004805461058490611d55565b80601f01602080910402602001604051908101604052809291908181526020018280546105b090611d55565b80156105fd5780601f106105d2576101008083540402835291602001916105fd565b820191906000526020600020905b8154815290600101906020018083116105e057829003601f168201915b505050505081565b6005805461058490611d55565b61061a61106b565b60025460405163a712654b60e01b81526004810186905284151560248201526001600160a01b039091169063a712654b90604401600060405180830381600087803b15801561066857600080fd5b505af1925050508015610679575060015b506001546040516395e5008560e01b81526004810186905260248101849052604481018390526001600160a01b03909116906395e5008590606401600060405180830381600087803b1580156106ce57600080fd5b505af19250505080156106df575060015b506040805184151581526020810184905290810182905284907f7562dfdddc0a0db9776fbfce3aa61e20f76df7ed3f2a036c446d5cbbaf5287049060600160405180910390a250505050565b604051806102a0016040528061027381526020016120af610273913981565b61075261106b565b61075c6000611098565b565b61076661106b565b600180546001600160a01b039384166001600160a01b03199182161790915560028054929093169116179055565b61079c61106b565b6001600160a01b0381166107c657604051631e4fbdf760e01b815260006004820152602401610311565b6107cf81611098565b50565b6005845111156108155760405162461bcd60e51b815260206004820152600e60248201526d546f6f206d616e792077656c6c7360901b6044820152606401610311565b60005b845181101561091a576007600086838151811061083757610837611d3f565b60209081029190910181015182528101919091526040016000205460ff1661090857306001600160a01b0316630b989b7b86838151811061087a5761087a611d3f565b60209081029190910101516040516001600160e01b031960e084901b16815260048101919091526001600160401b038716602482015263ffffffff86166044820152606481018590526084016020604051808303816000875af1925050508015610901575060408051601f3d908101601f191682019092526108fe91810190611d8f565b60015b1561090857505b8061091281611dbe565b915050610818565b5050505050565b61092e82600080846110e8565b5050565b6060816000036109595750506040805180820190915260018152600360fc1b602082015290565b8160005b8115610983578061096d81611dbe565b915061097c9050600a83611ded565b915061095d565b6000816001600160401b0381111561099d5761099d6118cc565b6040519080825280601f01601f1916602001820160405280156109c7576020820181803683370190505b5090505b8415610a32576109dc600183611e01565b91506109e9600a86611e14565b6109f4906030611e28565b60f81b818381518110610a0957610a09611d3f565b60200101906001600160f81b031916908160001a905350610a2b600a86611ded565b94506109cb565b949350505050565b8051600003610a5c5760405163fe936cb760e01b815260040160405180910390fd5b60a090910152565b60606000610a73610100611166565b9050610aac6040518060400160405280600c81526020016b31b7b232a637b1b0ba34b7b760a11b8152508261118790919063ffffffff16565b8251610aca906002811115610ac357610ac3611e3b565b82906111a5565b6040805180820190915260088152676c616e677561676560c01b6020820152610af4908290611187565b6040830151610b0b908015610ac357610ac3611e3b565b604080518082019091526006815265736f7572636560d01b6020820152610b33908290611187565b6060830151610b43908290611187565b60a08301515115610bd7576040805180820190915260048152636172677360e01b6020820152610b74908290611187565b610b7d816111de565b60005b8360a0015151811015610bcd57610bbd8460a001518281518110610ba657610ba6611d3f565b60200260200101518361118790919063ffffffff16565b610bc681611dbe565b9050610b80565b50610bd781611202565b60808301515115610c9b57600083602001516002811115610bfa57610bfa611e3b565b03610c185760405163a80d31f760e01b815260040160405180910390fd5b60408051808201909152600f81526e39b2b1b932ba39a637b1b0ba34b7b760891b6020820152610c49908290611187565b610c6283602001516002811115610ac357610ac3611e3b565b6040805180820190915260078152667365637265747360c81b6020820152610c8b908290611187565b6080830151610c9b908290611220565b60c08301515115610d345760408051808201909152600981526862797465734172677360b81b6020820152610cd1908290611187565b610cda816111de565b60005b8360c0015151811015610d2a57610d1a8460c001518281518110610d0357610d03611d3f565b60200260200101518361122090919063ffffffff16565b610d2381611dbe565b9050610cdd565b50610d3481611202565b515192915050565b6000807f00000000000000000000000000000000000000000000000000000000000000006001600160a01b031663461d27628688600188886040518663ffffffff1660e01b8152600401610d94959493929190611e51565b6020604051808303816000875af1158015610db3573d6000803e3d6000fd5b505050506040513d601f19601f82011682018060405250810190610dd79190611d8f565b60405190915081907f1131472297a800fee664d1d89cfa8f7676ff07189ecc53f80bbb5f4969099db890600090a295945050505050565b6004610e1a8382611ee8565b506005610e278282611ee8565b5060008381526006602052604081205490819003610e7b5760405162461bcd60e51b815260206004820152601160248201527014995c5d595cdd081b9bdd08199bdd5b99607a1b6044820152606401610311565b815115610ee557837f418936142b18a79c96b45e64ab73d3ffda7a53dedb467757f18573633e3f9c8683604051610eb29190611a8c565b60405180910390a26000908152600760209081526040808320805460ff1916905594825260069052928320929092555050565b837f2e58a9a9da8f950879e524a06e33834a54fee2efe5378327cfbafde627023a7684604051610f159190611a8c565b60405180910390a28260008080610f2b8461122d565b60025460405163a712654b60e01b8152600481018a9052841515602482015293965091945092506001600160a01b03169063a712654b90604401600060405180830381600087803b158015610f7f57600080fd5b505af1925050508015610f90575060015b506001546040516395e5008560e01b81526004810187905260248101849052604481018390526001600160a01b03909116906395e5008590606401600060405180830381600087803b158015610fe557600080fd5b505af1925050508015610ff6575060015b506040805184151581526020810184905290810182905285907f7562dfdddc0a0db9776fbfce3aa61e20f76df7ed3f2a036c446d5cbbaf5287049060600160405180910390a2505050600091825250600760209081526040808320805460ff1916905594825260069052928320929092555050565b6000546001600160a01b0316331461075c5760405163118cdaa760e01b8152336004820152602401610311565b600080546001600160a01b038381166001600160a01b0319831681178455604051919092169283917f8be0079c531659141344cd1fd0a4f28419497f9722a3daafe3b4186f6b6457e09190a35050565b805160000361110a576040516322ce3edd60e01b815260040160405180910390fd5b8383600281111561111d5761111d611e3b565b9081600281111561113057611130611e3b565b9052506040840182801561114657611146611e3b565b9081801561115657611156611e3b565b9052506060909301929092525050565b61116e611823565b805161117a9083611475565b5060006020820152919050565b61119482600383516114ef565b81516111a0908261160e565b505050565b81516111b29060c2611636565b5061092e82826040516020016111ca91815260200190565b604051602081830303815290604052611220565b6111e981600461169f565b6001816020018181516111fc9190611e28565b90525050565b61120d81600761169f565b6001816020018181516111fc9190611e01565b61119482600283516114ef565b80516001906103e8906032901561146e578360005b600a82516112509190611e01565b81101561146b5781818151811061126957611269611d3f565b6020910101516001600160f81b031916601d60fa1b1480156112b9575081611292826001611e28565b815181106112a2576112a2611d3f565b6020910101516001600160f81b031916603960f91b145b80156112f35750816112cc826002611e28565b815181106112dc576112dc611d3f565b6020910101516001600160f81b031916607560f81b145b801561132d575081611306826003611e28565b8151811061131657611316611d3f565b6020910101516001600160f81b031916606560f81b145b1561133b576001945061146b565b81818151811061134d5761134d611d3f565b6020910101516001600160f81b031916603360f91b14801561139d575081611376826001611e28565b8151811061138657611386611d3f565b6020910101516001600160f81b031916606160f81b145b80156113d75750816113b0826002611e28565b815181106113c0576113c0611d3f565b6020910101516001600160f81b031916601b60fa1b145b80156114115750816113ea826003611e28565b815181106113fa576113fa611d3f565b6020910101516001600160f81b031916607360f81b145b801561144b575081611424826004611e28565b8151811061143457611434611d3f565b6020910101516001600160f81b031916606560f81b145b15611459576000945061146b565b8061146381611dbe565b915050611242565b50505b9193909250565b604080518082019091526060815260006020820152611495602083611e14565b156114bd576114a5602083611e14565b6114b0906020611e01565b6114ba9083611e28565b91505b6020808401839052604051808552600081529081840101818110156114e157600080fd5b604052508290505b92915050565b6017816001600160401b03161161151b5782516115159060e0600585901b168317611636565b50505050565b60ff816001600160401b03161161155b578251611543906018611fe0600586901b1617611636565b508251611515906001600160401b03831660016116b6565b61ffff816001600160401b03161161159c578251611584906019611fe0600586901b1617611636565b508251611515906001600160401b03831660026116b6565b63ffffffff816001600160401b0316116115df5782516115c790601a611fe0600586901b1617611636565b508251611515906001600160401b03831660046116b6565b82516115f690601b611fe0600586901b1617611636565b508251611515906001600160401b03831660086116b6565b60408051808201909152606081526000602082015261162f8383845161173b565b9392505050565b604080518082019091526060815260006020820152825151600061165b826001611e28565b90508460200151821061167c5761167c85611677836002611fa7565b61180c565b8451602083820101858153508051821115611695578181525b5093949350505050565b81516111a090601f611fe0600585901b1617611636565b60408051808201909152606081526000602082015283515160006116da8285611e28565b905085602001518111156116f7576116f786611677836002611fa7565b60006001611707866101006120a2565b6117119190611e01565b9050865182810187831982511617815250805183111561172f578281525b50959695505050505050565b604080518082019091526060815260006020820152825182111561175e57600080fd5b835151600061176d8483611e28565b9050856020015181111561178a5761178a86611677836002611fa7565b8551805183820160200191600091808511156117a4578482525b505050602086015b602086106117e457805182526117c3602083611e28565b91506117d0602082611e28565b90506117dd602087611e01565b95506117ac565b51815160001960208890036101000a0190811690199190911617905250849150509392505050565b81516118188383611475565b50611515838261160e565b604051806040016040528061184b604051806040016040528060608152602001600081525090565b8152602001600081525090565b80356001600160401b038116811461186f57600080fd5b919050565b803563ffffffff8116811461186f57600080fd5b6000806000806080858703121561189e57600080fd5b843593506118ae60208601611858565b92506118bc60408601611874565b9396929550929360600135925050565b634e487b7160e01b600052604160045260246000fd5b60405160e081016001600160401b0381118282101715611904576119046118cc565b60405290565b604051601f8201601f191681016001600160401b0381118282101715611932576119326118cc565b604052919050565b60006001600160401b03821115611953576119536118cc565b50601f01601f191660200190565b600082601f83011261197257600080fd5b81356119856119808261193a565b61190a565b81815284602083860101111561199a57600080fd5b816020850160208301376000918101602001919091529392505050565b6000806000606084860312156119cc57600080fd5b8335925060208401356001600160401b03808211156119ea57600080fd5b6119f687838801611961565b93506040860135915080821115611a0c57600080fd5b50611a1986828701611961565b9150509250925092565b600060208284031215611a3557600080fd5b5035919050565b60005b83811015611a57578181015183820152602001611a3f565b50506000910152565b60008151808452611a78816020860160208601611a3c565b601f01601f19169290920160200192915050565b60208152600061162f6020830184611a60565b80151581146107cf57600080fd5b60008060008060808587031215611ac357600080fd5b843593506020850135611ad581611a9f565b93969395505050506040820135916060013590565b6001600160a01b03811681146107cf57600080fd5b60008060408385031215611b1257600080fd5b8235611b1d81611aea565b91506020830135611b2d81611aea565b809150509250929050565b600060208284031215611b4a57600080fd5b813561162f81611aea565b60008060008060808587031215611b6b57600080fd5b84356001600160401b0380821115611b8257600080fd5b818701915087601f830112611b9657600080fd5b8135602082821115611baa57611baa6118cc565b8160051b9250611bbb81840161190a565b828152928401810192818101908b851115611bd557600080fd5b948201945b84861015611bf357853582529482019490820190611bda565b9850611c029050898201611858565b9650505050506118bc60408601611874565b600082601f830112611c2557600080fd5b8151611c336119808261193a565b818152846020838601011115611c4857600080fd5b610a32826020830160208701611a3c565b805161186f81611a9f565b805161186f81611aea565b600060208284031215611c8157600080fd5b81516001600160401b0380821115611c9857600080fd5b9083019060e08286031215611cac57600080fd5b611cb46118e2565b825182811115611cc357600080fd5b611ccf87828601611c14565b8252506020830151602082015260408301516040820152611cf260608401611c59565b6060820152611d0360808401611c64565b608082015260a083015160a082015260c083015182811115611d2457600080fd5b611d3087828601611c14565b60c08301525095945050505050565b634e487b7160e01b600052603260045260246000fd5b600181811c90821680611d6957607f821691505b602082108103611d8957634e487b7160e01b600052602260045260246000fd5b50919050565b600060208284031215611da157600080fd5b5051919050565b634e487b7160e01b600052601160045260246000fd5b600060018201611dd057611dd0611da8565b5060010190565b634e487b7160e01b600052601260045260246000fd5b600082611dfc57611dfc611dd7565b500490565b818103818111156114e9576114e9611da8565b600082611e2357611e23611dd7565b500690565b808201808211156114e9576114e9611da8565b634e487b7160e01b600052602160045260246000fd5b6001600160401b038616815260a060208201526000611e7360a0830187611a60565b61ffff9590951660408301525063ffffffff92909216606083015260809091015292915050565b601f8211156111a057600081815260208120601f850160051c81016020861015611ec15750805b601f850160051c820191505b81811015611ee057828155600101611ecd565b505050505050565b81516001600160401b03811115611f0157611f016118cc565b611f1581611f0f8454611d55565b84611e9a565b602080601f831160018114611f4a5760008415611f325750858301515b600019600386901b1c1916600185901b178555611ee0565b600085815260208120601f198616915b82811015611f7957888601518255948401946001909101908401611f5a565b5085821015611f975787850151600019600388901b60f8161c191681555b5050505050600190811b01905550565b80820281158282048414176114e9576114e9611da8565b600181815b80851115611ff9578160001904821115611fdf57611fdf611da8565b80851615611fec57918102915b93841c9390800290611fc3565b509250929050565b600082612010575060016114e9565b8161201d575060006114e9565b8160018114612033576002811461203d57612059565b60019150506114e9565b60ff84111561204e5761204e611da8565b50506001821b6114e9565b5060208310610133831016604e8410600b841016171561207c575081810a6114e9565b6120868383611fbe565b806000190482111561209a5761209a611da8565b029392505050565b600061162f838361200156fe636f6e737420746f6b656e4964203d20617267735b305d3b636f6e73742077656c6c4c6f636174696f6e203d20617267735b315d3b747279207b2020636f6e737420726573706f6e7365203d2061776169742046756e6374696f6e732e6d616b654874747052657175657374287b2020202075726c3a206068747470733a2f2f6170692e6578616d706c652e636f6d2f77656c6c732f247b746f6b656e49647d602c202020206d6574686f643a2027474554272c20202020686561646572733a207b2027436f6e74656e742d54797065273a20276170706c69636174696f6e2f6a736f6e27207d20207d293b202069662028726573706f6e73652e6572726f7229207468726f77206e6577204572726f722827415049204572726f7227293b2020636f6e73742064617461203d20726573706f6e73652e646174613b202072657475726e2046756e6374696f6e732e656e636f6465537472696e67284a534f4e2e737472696e67696679287b2020202069734163746976653a20646174612e737461747573203d3d3d20276f7065726174696f6e616c272c2020202063617061636974793a20646174612e6461696c794361706163697479207c7c20313030302c2020202070656f706c655365727665643a20646174612e62656e65666963696172696573207c7c20353020207d29293b7d20636174636820286572726f7229207b202072657475726e2046756e6374696f6e732e656e636f6465537472696e67284a534f4e2e737472696e67696679287b2020202069734163746976653a20747275652c2020202063617061636974793a20313030302c2020202070656f706c655365727665643a20353020207d29293b7da2646970667358221220c330aa3a2598c55c416804107dd06840f8dca81b68a08cf4355a7da19a3b325364736f6c63430008140033",
  "linkReferences": {},
  "deployedLinkReferences": {}
}